:020000040000FA
:100000000C9466020C9497020C9497020C9497023D
:100010000C9497020C9497020C9497020C949702FC
:100020000C9497020C942F120C942F120C942F12F4
:100030000C9497020C9497020C9497020C949702DC
:100040000C9497020C94C3120C9497020C94970290
:100050000C9497020C9497020C9497020C94E5115F
:100060000C9497020C94AF110C9485110C94970288
:100070000C9497020C9497020C9497020C9497029C
:100080000C9495120C9497020C9497020C9497027E
:100090000C944F110C9425110C9497020C94970218
:1000A0000C9497020C9497020C9467120C9497028C
:1000B0000C9497020C9497020C9497020C943912AA
:1000C0000C9497020C9497020C9497020C9497024C
:1000D0000C9497020C9497020C9497020C9497023C
:1000E0000C949702036EDB363D9A9999993DABAA21
:1000F000AA2A3E000000803F084AD73B3BCE016E53
:1001000084BCBFFDC12F3D6C74319ABD56833DDA6E
:100110003D00C77F11BED9E4BB4C3E916BAAAABE7D
:10012000000000803F072C7AA5BA6CC590DA3B939B
:1001300065FC8BBC53F810FD3C5692834DBD879DEA
:100140003AB63DCBC9BF5BBE73DA0FC93F05A84CB9
:10015000CDB2D44EB93836A9020C50B99186880870
:100160003CA6AAAA2ABE000000803F0664EC1B3C05
:1001700004BC163E3BE5B93CC93C37C29E5A3D66BD
:100180000498083EEA69AAAA3E000000803F07637F
:100190004236B79BD8A71A39685618AEBAAB558CF9
:1001A0001D3CB7CC5763BD6DEDFD753EF617723142
:1001B000BF000000803F08000000BE922449123EAC
:1001C000ABAAAA2ABECDCCCC4C3E00000080BEAB70
:1001D000AAAAAA3E00000000BF000000803F000065
:1001E000000000084178D3BB4387D1133D190E3C72
:1001F000C3BD4282AD2B3E68EC8276BED98FE1A9A9
:100200003E4C80EFFFBE01C4FF7F3F0000000000B6
:100210000C941B130C944D040C946D040C945B040F
:100220000C942A030C94D6020C9438040C94720497
:100230000C9447040C947A030C9451040C944004DD
:100240000C949A020C9438030C945F040C944404AC
:100250000C9469040C9465040C94C7020C943C043F
:100260000C9457040C94C7030C9432040C94770438
:100270000C9473044E414E494E495459494E46CD53
:10028000CCCC3D0AD7233C17B7D13877CC2B32954D
:1002900095E6241FB14F0A000020410000C842002B
:1002A000401C4620BCBE4CCA1B0E5AAEC59D7400F5
:1002B000407A10F35A00A0724E18090010A5D4E835
:1002C0000000E87648170000E40B54020000CA9AC8
:1002D0003B000000E1F5050000809698000000401A
:1002E000420F000000A0860100000010270000005F
:1002F00000E803000000006400000000000A0000A5
:100300000000000100000000002C76D888DC674F58
:100310000823DFC1DFAE59E1B1B796E5E3E453C688
:100320003AE651997696E8E6C28426EB898C9B6280
:10033000ED407C6FFCEFBC9C9F40F2BAA56FA5F42A
:1003400090055A2AF75C936B6CF9676DC11BFCE052
:10035000E40D47FEF520E6B500D0ED902E030094A5
:100360003577050080841E080000204E0A0000003A
:10037000C80C333333330F986E12831141EF8D2144
:1003800014893BE65516CFFEE6DB18D1844B381BAB
:10039000F77C1D901DA4BBE424203284725E228170
:1003A00000C9F124ECA1E53D27000021002400272D
:1003B000002A002D00300033000101000004010775
:1003C000010A0100002200250028002B002E003128
:1003D00000340002010000050108010B01000020AB
:1003E000002300260029002C002F0032000001000D
:1003F00000030106010901050505050705080808B0
:1004000008020202020A0A080804040404010101A5
:1004100001010101010303030303030303040707AD
:10042000070C0C0C0C0C0C0C0C020202020606064B
:1004300006060606060B0B0B0B0B0B0B0B01021033
:1004400020200808102040102040800201020108EE
:10045000040201010204081020408080402010089E
:1004600004020180040201804020100804020108F7
:100470000402010102040810204080010204081057
:1004800020408000000A0B02090C0D0E080703042F
:10049000010000000000000000000000000000005B
:1004A000000000000000000000000000000000123A
:1004B000111000000000000000000000000000001B
:1004C000000000000000000000001B1311241FBEEC
:1004D000CFEFD1E2DEBFCDBF00E00CBF13E0A0E064
:1004E000B2E0E0E1FCE400E00BBF02C007900D9237
:1004F000A630B107D9F727E0A6E0B3E001C01D920E
:10050000A033B207E1F712E0C6E6D2E000E006C091
:1005100021970109802FFE010E94B123C536D10722
:1005200080E00807A9F70E9489130C9406260C9412
:1005300000000895AF92BF92CF92DF92EF92FF92A8
:100540000F931F93CF93DF936C017B018B01040FFB
:10055000151FEB015E01AE18BF08C017D10759F097
:100560006991D601ED91FC910190F081E02DC601D9
:100570001995892B79F7C501DF91CF911F910F91C3
:10058000FF90EF90DF90CF90BF90AF900895FC0167
:10059000538D448D252F30E0842F90E0821B930BE8
:1005A000541710F0CF96089501970895FC01918D8E
:1005B000828D981761F0A28DAE0FBF2FB11D5D9691
:1005C0008C91928D9F5F9F73928F90E008958FEF33
:1005D0009FEF08952FB7F8948091BB039091BC03CF
:1005E000A091BD03B091BE032FBF8093C70390932A
:1005F000C803A093C903B093CA038FEB93E00E9492
:10060000D60297FF26C02FB7F8948091BB03909134
:10061000BC03A091BD03B091BE032FBF4091C7039F
:100620005091C8036091C9037091CA03841B950B54
:10063000A60BB70B4091C3035091C4036091C5034F
:100640007091C60384179507A607B707B0F28FEF1E
:100650009FEF0895FC01918D828D981731F0828D66
:10066000E80FF11D858D90E008958FEF9FEF0895BD
:10067000FC01918D228D892F90E0805C9F4F821B21
:1006800091098F73992708958FEB93E00E943803A7
:1006900021E0892B09F420E0822F08958CE594E075
:1006A0000E94380321E0892B09F420E0822F08956D
:1006B000FC01A48DA80FB92FB11DA35ABF4F2C91D7
:1006C000848D90E001968F739927848FA689B789CE
:1006D0002C93A089B1898C91837080648C93938DC5
:1006E000848D981306C00288F389E02D80818F7D68
:1006F00080830895EF92FF920F931F93CF93DF9320
:10070000EC0181E0888F9B8D8C8D98131AC0E8894D
:10071000F989808185FF15C09FB7F894EE89FF891C
:100720006083E889F98980818370806480839FBFBA
:1007300081E090E0DF91CF911F910F91FF90EF90BA
:100740000895F62E0B8D10E00F5F1F4F0F731127CA
:10075000E02E8C8D8E110CC00FB607FCFACFE88905
:10076000F989808185FFF5CFCE010E945803F1CF32
:10077000EB8DEC0FFD2FF11DE35AFF4FF0829FB779
:10078000F8940B8FEA89FB8980818062CFCFCF9369
:10079000DF93EC01888D8823B9F0AA89BB89E889A9
:1007A000F9898C9185FD03C0808186FD0DC00FB64F
:1007B00007FCF7CF8C9185FFF2CF808185FFEDCFCD
:1007C000CE010E945803E9CFDF91CF91089580E0D8
:1007D00090E0892B29F00E944E0381110E940000B5
:1007E00080E090E0892B29F00E94440381110E944F
:1007F000000080E090E0892B49F080E090E0892BB8
:1008000029F00E94000081110E94000080E090E029
:10081000892B49F080E090E0892B29F00E940000AC
:1008200081110C94000008958150823108F05AC063
:10083000E82FF0E08827E05EFB4F8F4F0C94B12348
:1008400040044404320438043C04720447044D0458
:10085000510457045B045F046504690472046D0469
:1008600073047704809180008F77809380000895CF
:10087000809180008F7DF9CF80918000877FF5CFB8
:1008800084B58F7784BD089584B58F7DFBCF80912B
:10089000B0008F778093B00008958091B0008F7D75
:1008A000F9CF809190008F77809390000895809188
:1008B00090008F7DF9CF80919000877FF5CF809158
:1008C000A0008F778093A00008958091A0008F7D75
:1008D000F9CF8091A000877FF5CF809120018F779D
:1008E000809320010895809120018F7DF9CF809120
:1008F0002001877FF5CFCF93DF93282F30E0F901D8
:10090000ED57FB4F8491F901E35CFB4FD491F90162
:10091000E950FC4FC491CC23A1F081110E94140432
:10092000EC2FF0E0EE0FFF1FE352FC4FA591B491C6
:10093000EC91ED2381E090E009F480E0DF91CF912C
:10094000089580E090E0FACF1F93CF93DF93282F94
:1009500030E0F901ED57FB4F8491F901E35CFB4F67
:10096000D491F901E950FC4FC491CC23A9F0162F82
:1009700081110E941404EC2FF0E0EE0FFF1FED53E5
:10098000FC4FA591B4918FB7F894EC91111108C068
:10099000D095DE23DC938FBFDF91CF911F91089517
:1009A000DE2BF8CF3FB7F89480919F039091A0037E
:1009B000A091A103B091A20326B5A89B05C02F3F2B
:1009C00019F00196A11DB11D3FBFBA2FA92F982F75
:1009D0008827BC01CD01620F711D811D911D42E070
:1009E000660F771F881F991F4A95D1F708958F9238
:1009F0009F92AF92BF92CF92DF92EF92FF92FC0153
:100A0000828158E5C52E52E0D52EC81AD10887FD3F
:100A1000D394CC0CDD1CCC0CDD1C0D2C000CEE0892
:100A2000FF08818178E8872E912C881A910887FD2C
:100A30009394880C991C880C991C092C000CAA080A
:100A4000BB0880818F3FD1F190E0FC01EE0FFF1FCA
:100A5000E80FF91FE55FFC4F8181928133E0880F39
:100A6000991F3A95E1F7B0E0A0E044E0B595A7956D
:100A7000979587954A95D1F702969C012F5F3F4F36
:100A8000032E000C440B550B281939094A095B0940
:100A9000A4EBB0E00E94581FA7019601281939095C
:100AA0004A095B090E94391FC901FF90EF90DF904E
:100AB000CF90BF90AF909F908F90089590E080E08E
:100AC000DCCFCF92DF92EF92FF92CF93DF93EC01D6
:100AD000603282E07807CCF5653B710514F064EB79
:100AE00070E0898128E830E0281B310987FD3395C3
:100AF000220F331F220F331F6901330FEE08FF0847
:100B00008A8128E532E0281B310987FD3395220FC1
:100B1000331F220F331F032E000C440B550B2C19CF
:100B20003D094E095F09DB0177FF02C0B0E0A0E09C
:100B30000E94631F24EB30E040E050E00E94391F28
:100B4000C20ED31EE41EF51EB601E881E03370F537
:100B5000298188E890E0821B910927FD9395880FF1
:100B6000991F880F991F681779077CF02A8188E5FB
:100B700092E0821B910927FD9395880F991F880F9A
:100B8000991F681779070CF4CB010297880F991FFA
:100B90004FB7F8942E2F30E0F901EE0FFF1FE20F50
:100BA000F31FE55FFC4F928381834FBFDF91CF91AD
:100BB000FF90EF90DF90CF900895CF93DF93DC010B
:100BC0008C91803308F06DC0CB01FB01E35CFB4FDF
:100BD000249189509C4FFC018491882399F090E0E6
:100BE000880F991FFC01E755FC4FC591D491FC017A
:100BF000ED53FC4F859194918FB7F894E881E22BE7
:100C0000E8838FBF8C91282F30E0F901EE0FFF1F92
:100C1000E20FF31FE55FFC4F962F9F736081607CAE
:100C2000692B608311961C92119712961C92129751
:100C30002CE0622F0E949123829FB001112430E0AA
:100C400020E0AB01420F531FFA01EE0FFF1FE40F2C
:100C5000F51FE55FFC4F908196FD16C02F5F3F4F5B
:100C60002C30310571F7813001F51092800082E05F
:100C7000809381001092850010928400B19A809137
:100C80006F00826080936F00EC918E2F90E0FC01EA
:100C9000EE0FFF1FE80FF91FE55FFC4F80818064B6
:100CA00080838C91DF91CF910895823061F410920E
:100CB000900080939100109295001092940088BB50
:100CC00080937100E1CF833069F41092A00082E03C
:100CD0008093A1001092A5001092A40089BB80937C
:100CE0007200D2CF8111D0CF1092200182E0809388
:100CF000210110922501109224018ABB8093730078
:100D0000C3CFAF92BF92CF92DF92EF92FF920F9339
:100D10001F93CF93DF936B017A01EC01CA5FDC4F25
:100D200028813CE0389F8001399F100D1124A0904C
:100D30000A03B12C27FF1FC0FB011182108288819A
:100D40008F5F888388819801280F311D87FD3A9530
:100D5000F6012A153B051CF488818C30C4F1808192
:100D60009181049680349C4908F473C0F601808117
:100D70009181049670C088819801280F311D87FDEC
:100D80003A952A153B05DCF68881A801480F511DCC
:100D900087FD5A95FA01EE0FFF1FE40FF51FE55F7F
:100DA000FC4F808186FFCBCF8881F801E80FF11DD1
:100DB00087FDFA95CF01EE0FFF1FE80FF91FE55FE2
:100DC000FC4F808160E08F730E94A404B8CF8081C3
:100DD00091812881A801420F511D27FD5A959A0142
:100DE000FA01EE0FFF1FE20FF31FE55FFC4F2181B9
:100DF0003281820F931FF70191838083888198014C
:100E0000280F311D87FD3A95F901EE0FFF1FE20F04
:100E1000F31FE55FFC4F808186FF22C08881080FA9
:100E2000111D87FD1A95F801EE0FFF1FE00FF11F4E
:100E3000E55FFC4F808161E08F73DF91CF911F915F
:100E40000F91FF90EF90DF90CF90BF90AF900C94F8
:100E5000A40480E49CE9F701918380838FEF888369
:100E6000DF91CF911F910F91FF90EF90DF90CF9086
:100E7000BF90AF90089580E090E0A0EAB1E4809345
:100E8000D0069093D106A093D206B093D30680E00B
:100E900090E0A0EAB1EC8093730690937406A0935F
:100EA0007506B093760680E090E0A0E2B1E480930E
:100EB000160690931706A0931806B093190680E0C3
:100EC00090E0A0E2B1EC8093B9059093BA05A093AD
:100ED000BB05B093BC0580E090E0A0E0B1EC80934E
:100EE0005C0590935D05A0935E05B0935F0580E07F
:100EF00090E0A0EEB0E48093FF0490930005A093EF
:100F00000105B09302050895CF93DF93EC0120E033
:100F100030E044E353E4688179818A819B810E94B7
:100F2000781E2BED3FE049E450E40E94692068837D
:100F300079838A839B83DF91CF91089583309105D4
:100F4000E1F034F481309105A9F0029751F0089551
:100F50008530910561F044F00697C9F78CEF94E075
:100F6000089580E796E0089586EB95E0089589E579
:100F700095E008958DEC96E0089583E196E008955C
:100F8000FB014230510541F04330510569F02BE03F
:100F90004130510519F008952BE03B96DC0101909A
:100FA0000D922A95E1F7F7CF2BE07696F7CFFC016B
:100FB00001900020E9F73197AF01481B590BBC01A4
:100FC0008CE594E00C949A028F929F92AF92BF921C
:100FD0000F931F93CF93DF93CDB7DEB7A1970FB6D3
:100FE000F894DEBF0FBECDBF19A2423008F44AE02C
:100FF0008E010F5D1F4F842E912CB12CA12CA501C9
:1010000094010E946B1FE62FB901CA01EA30F4F483
:10101000E05DD801EE938D01232B242B252B79F74E
:1010200090E080E0109719F0CD010E94D707A196BB
:101030000FB6F894DEBF0FBECDBFDF91CF911F91E9
:101040000F91BF90AF909F908F900895E95CE1CF92
:101050000C94D707CF93DF930E94D707EC0185E26A
:1010600092E00E94D7078C0F9D1FDF91CF910895CA
:101070004F925F926F927F928F929F92AF92BF92A8
:10108000CF92DF92EF92FF920F931F93CF936B015A
:101090007C01742EAC019B010E947F22882399F071
:1010A00088E292E0CF911F910F91FF90EF90DF9037
:1010B000CF90BF90AF909F908F907F906F905F90F8
:1010C0004F900C94D70746015701E894B7F82FEFDB
:1010D0003FEF4FE75FE7C501B4010E947F22811116
:1010E0000DC02FEF3FEF4FE75FE7C501B4010E944E
:1010F000121E18161CF48CE292E0D4CF2FEF3FEFB3
:101100004FE75FE4C701B6010E94AB2118161CF43B
:1011100080E392E0C7CF2FEF3FEF4FE75FECC701CF
:10112000B6010E94121E87FDF3CF20E030E0A90136
:10113000C701B6010E94121E10E000E087FF0AC03E
:101140006DE28CE594E00E947A038C01F7FAF0944A
:10115000F7F8F094C0E060E070E080E09FE37C1678
:1011600041F020E030E040E251E40E946920CF5F8E
:10117000F6CFA70196010E94AE1F2B013C010E94F1
:10118000E2204B015C014AE00E94E4077C01E00E92
:10119000F11ECC23C1F1C501B4010E94171E9B01B1
:1011A000AC01C301B2010E94AD1F4B015C016EE2B4
:1011B0008CE594E00E947A03E80EF91EC15018F104
:1011C00020E030E040E251E4C501B4010E94781E05
:1011D0002B013C010E94E2204B01B12CA12C4AE0E2
:1011E000C501B4010E94E407E80EF91EC501B4016F
:1011F0000E94171E9B01AC01C301B2010E94AD1FEA
:101200004B015C01DBCFC701CF911F910F91FF9084
:10121000EF90DF90CF90BF90AF909F908F907F9096
:101220006F905F904F900895CF93DF9342E00E94BC
:101230003808EC0185E292E00E94D7078C0F9D1FD1
:10124000DF91CF910895FC0180819181009711F089
:101250000C94091A60E070E0CB010895FC01248130
:101260003581232B39F421E0FB018081882349F06B
:1012700020E007C0808191810E94DC2521E0892B3C
:10128000B9F7822F08950F931F93CF93DF938C01AB
:10129000EB01FC01808191810097E1F06881798107
:1012A00061157105A9F0428153812C813D8142175E
:1012B000530770F00E94E5258C819D81F80195838C
:1012C00084831D821C82DF91CF911F910F9108951D
:1012D0000E94692488819981F801918380838A81A1
:1012E0009B81938382838C819D81958384831982E2
:1012F00018821B821A82E5CFCF93DF93EC0188819D
:101300009981009711F00E946924198218821D8228
:101310001C821B821A82DF91CF910895FC0180818B
:101320009181009711F00C94692408950F931F93F5
:10133000CF93DF93EC0188819981009759F02A813E
:101340003B812617370730F081E0DF91CF911F9165
:101350000F9108958B016F5F7F4F0E94F2240097D9
:1013600059F0998388831B830A832C813D81232B29
:1013700059F7FC011082E8CF80E0E7CFEF92FF92AF
:101380000F931F93CF93DF936115710541F480E0B4
:10139000DF91CF911F910F91FF90EF90089541152C
:1013A0005105B1F07B01EC010C811D81040F151F6B
:1013B000B8010E949609882351F3288139818C81D4
:1013C0009D81B701820F931F0E94E5251D830C8329
:1013D00081E0DECFFB0101900020E9F73197AF01FA
:1013E000461B570B0C94BE09EF92FF920F931F936D
:1013F000CF93DF93CDB7DEB764970FB6F894DEBF17
:101400000FBECDBF7C01CB01BA018E010F5F1F4F14
:1014100022E044E00E94EB19FC0101900020E9F772
:101420003197AF01481B590BBC01C7010E94BE098F
:1014300064960FB6F894DEBF0FBECDBFDF91CF919B
:101440001F910F91FF90EF900895EF92FF920F93ED
:101450001F93CF93DF93EC017B018A01BA010E94B5
:10146000960981110BC0CE010E947C09CE01DF914B
:10147000CF911F910F91FF90EF9008951D830C83E2
:10148000B701888199810E94E525F0CFFC01118286
:101490001082138212821582148250E040E067E2CB
:1014A00072E00C94250AFB0101900020E9F73197C6
:1014B000AF01461B570B0C94250AAF92BF92CF92F7
:1014C000DF92EF92FF920F931F93CF93DF936C0104
:1014D0005B017A0189012417350720F48F2D7901EA
:1014E000042F182FC6010E94460AD5011496CD91EB
:1014F000DC91EC16FD06E0F40C171D0708F4E8017A
:10150000D501ED91FC911197EC0FFD1F1081108218
:101510006D917C916E0D7F1DC60161157105A1F065
:101520000E94530AF50180819181C80FD91F188349
:10153000C601DF91CF911F910F91FF90EF90DF9047
:10154000CF90BF90AF9008950E947C09EBCFCF93CE
:10155000DF93EC01FB018617970749F060817181E9
:101560006115710541F0448155810E94250ACE0123
:10157000DF91CF9108950E947C09F9CFCF93DF933B
:10158000EC0157FD1BC0FB01868D978D481759074D
:10159000ACF4198218821B821A821D821C8226E0FA
:1015A000249FC001259F900D1124680F791FCE0143
:1015B0000E94A70ACE01DF91CF910895CE010E942B
:1015C000460AF8CF6F927F928F929F92AF92BF920E
:1015D000CF92DF92EF92FF920F931F93CF93DF93FF
:1015E000CDB7DEB768970FB6F894DEBF0FBECDBF9C
:1015F0008C017B01B42E69013C014C018EE1880E07
:10160000911CC3010E94460AE6E06E0E711C86140E
:101610009704B9F7F801178E168E1A8219821C8268
:101620001B821E821D82B701CE0101960E94A70A6D
:1016300049815A816D817E8130E020E090E080E038
:101640006217730789F0FA01E20FF31F4115510584
:1016500021F410929D03EDE9F3E0E081BE1201C098
:1016600001962F5F3F4FECCF0196F801978F868F41
:10167000CE0101960E948E09F801868D978D8230E9
:101680009105ECF481E090E0978F868FB701C80157
:101690000E94A70A68960FB6F894DEBF0FBECDBFB2
:1016A000DF91CF911F910F91FF90EF90DF90CF903E
:1016B000BF90AF909F908F907F906F900895C816C5
:1016C000D90610F4D78EC68EF801868D978D0697B1
:1016D00020F085E090E0978F868F1C8A1B8A1E8AF7
:1016E0001D8A188E1F8AB9821A82BE016F5F7F4FD2
:1016F000CE0143960E94530ACE010D960E94460ADF
:1017000018861F821A8619861C861B86B701CE0191
:1017100007960E94A70AD12CC12C86E0882E8B85C3
:101720009C85892B09F4B0C0EF80F8846B897C8993
:10173000C7010E94EC25009709F499C08E199F09F2
:1017400097FD95C0F801868D978D0197C816D9062B
:101750000CF08DC0F12CE12C9E2CAF2C8B859C8540
:10176000E816F906E0F6FFEFEF1AFF0A9701492D98
:101770005A2DBE01695F7F4FCE0101960E945D0A1E
:101780002D813E818F89988D2817390711F5898120
:101790009A816B897C89009759F06115710509F070
:1017A00060C0232B09F460C0FC01808190E00DC073
:1017B0006115710509F458C0232B09F455C0FB01CC
:1017C000808190E0919581959109BB24B394892BF8
:1017D00009F0B12CCE0101960E948E09BB2009F4BC
:1017E000BBCF292D3A2D50E040E0BE01695F7F4F0D
:1017F000CE0101960E945D0ABE016F5F7F4FCE0150
:101800000D960E944309CE0101960E948E092B85F8
:101810003C85A701BE01695F7F4FCE0101960E9402
:101820005D0ABE016F5F7F4FCE0107960E9443099C
:10183000CE0101960E948E0989899A89892B09F423
:101840006ECF8C9CC0018D9C900D1124BE01635FF6
:101850007F4F800F911F0E94A70AFFEFCF1ADF0A68
:101860005ECF0E94DC25B1CFBB24B394B3CF26E07A
:101870002C9DC0012D9D900D1124BE01695F7F4FED
:10188000800F911F0E94A70ACE0107960E948E0921
:10189000CE010D960E948E09CE0143960E948E09BC
:1018A000F9CE8F929F92AF92BF92CF92DF92EF923A
:1018B000FF921F93CF93DF93EC01162F2B813C8176
:1018C0004D815E8160E070E084EB92E40E94AD1F88
:1018D0006B837C838D839E8386E0C037D80709F4B1
:1018E0005AC085E0C63BD80709F455C084E0CC3F18
:1018F000D80709F450C0612F70E090E080E00E94AA
:10190000171E9B01AC0160E070E080E89FEB0E9435
:10191000B8216B017C0120E030E044EB52E40E94EE
:10192000781E9B01AC016E857F85888999890E940C
:10193000AE1F6E877F87888B998B61E01627612F9A
:1019400070E090E080E00E94171E9B01AC0160E017
:1019500070E080E89FEB0E94B8214B015C0120E021
:1019600030E044E353E4C701B6010E94781E298D9C
:101970003A8D4B8D5C8D0E94AE1FA50194010E9493
:10198000781E20E030E044E353E40E94AE1F698FEC
:101990007A8F8B8F9C8FDF91CF911F91FF90EF906B
:1019A000DF90CF90BF90AF909F908F9008952F922F
:1019B0003F924F925F926F927F928F929F92AF92DF
:1019C000BF92CF92DF92FF920F931F93CF93DF933B
:1019D000CDB7DEB766970FB6F894DEBF0FBECDBFAA
:1019E0006C0184E392E00E942A0822242394312C83
:1019F00001E010E0F12CC114D10409F058C027E037
:101A0000221631041CF4FF2009F485C00E94D20480
:101A10004B015C018AEF482E512C612C712C0E94E5
:101A2000D204681979098A099B09683E73408105C7
:101A30009105A8F321E0421A51086108710888EE67
:101A4000880E83E0981EA11CB11C4114510461044E
:101A5000710429F7F110CECFC114D10409F094C05C
:101A600001E010E0C8010E949E0761E00E94510C55
:101A70000F5F1F4F07301105A9F766960FB6F89450
:101A8000DEBF0FBECDBFDF91CF911F910F91FF90B1
:101A9000DF90CF90BF90AF909F908F907F906F908E
:101AA0005F904F903F902F900895FF24F39404305F
:101AB00011050CF0ABCFF110A9CFC6010E949E0713
:101AC0003C01A801BC01CE010C960E94C0078F8486
:101AD0009888A988BA88A801B301CE0101960E940E
:101AE000C007CE0101960E94F704BC01990F880B34
:101AF000990B0E94191E9B01AC01C501B4010E9403
:101B0000AD1F0E94DB20161617067CF20F5F1F4FD9
:101B1000CECFFF24F3940430110574F5F1106FCF8C
:101B2000C1010E949E073C01A801BC01CE010C9698
:101B30000E94C0078F849888A988BA88A801B30139
:101B4000CE0101960E94C007CE0101960E94F704C3
:101B5000BC01990F880B990B0E94191E9B01AC01C7
:101B6000C501B4010E94AD1F0E94DB2016161706A6
:101B700084F20F5F1F4FCFCFF11041CF8FEF281AA4
:101B8000380A01E010E03BCFC6010E949E0761E0E9
:101B90000E94510C72CFCF92DF92EF92FF92CF93BF
:101BA000DF93EC016B0103960E948407CE010E9631
:101BB0000E948407CE0149960E94840760E0CE010E
:101BC0000E94510C6B817C818D819E810E94DB2063
:101BD000CE010E9461056E857F85888999890E9462
:101BE000DB20CE010B960E946105698D7A8D8B8D6D
:101BF0009C8D0E94DB20CE0146960E94610582E406
:101C000092E00E9428080D2C000CEE08FF084AE024
:101C1000C701B601F7FE0DC06DE28CE594E00E94AD
:101C20007A0366277727CB016C197D098E099F09F6
:101C30004AE00E94E40788E492E00E9428086B8151
:101C40007C818D819E8142E00E94380882E592E08D
:101C50000E9428086E857F858889998942E00E94C4
:101C600038088CE592E00E942808698D7A8D8B8D6A
:101C70009C8DDF91CF91FF90EF90DF90CF900C94EF
:101C800014094F925F926F927F928F929F92AF92C0
:101C9000BF92CF92DF92EF92FF92FC01608171813F
:101CA0008281938184809580A680B780C084D1840E
:101CB000E284F3849B01AC010E94781E2B013C015D
:101CC000A5019401C501B4010E94781E9B01AC01DD
:101CD000C301B2010E94AE1F4B015C01A701960136
:101CE000C701B6010E94781E9B01AC01C501B40179
:101CF0000E94AE1FFF90EF90DF90CF90BF90AF900B
:101D00009F908F907F906F905F904F900C941622D1
:101D10004F925F926F927F928F929F92AF92BF92FB
:101D2000CF92DF92EF92FF920F931F93CF93DF93A7
:101D3000CDB7DEB76C970FB6F894DEBF0FBECDBF40
:101D40009A8789870E949E078C0189859A850197C9
:101D5000049750F089859A850597029768F480E08A
:101D600090E0A0E8BFE304C080E090E0A0E8BFEB13
:101D7000898F9A8FAB8FBC8F2BED3FE049E450E405
:101D8000D80113966D917D918D919C9116970E942B
:101D9000781E20E030E044E353E40E9469204B01C8
:101DA0005C01F80183829482A582B68281A192A10E
:101DB000A3A1B4A189839A83AB83BC8320E030E0E4
:101DC000A901BC01CD010E94AB2118164CF08981FC
:101DD0009A81AB81BC81B05889839A83AB83BC83E1
:101DE000F801EB5BFF4F408051806280738020E000
:101DF00030E0A901C301B2010E94AB21A30192010D
:101E000018160CF0505869817A818B819C810E9450
:101E1000AD1F6B017C01D8019D96CD92DD92ED92B4
:101E2000FC92D097F801E35BFF4F80819181A28102
:101E3000B3818D879E87AF87B88BD80199962D91F6
:101E40003D914D915C919C976D857E858F8598899C
:101E50000E94AE1F6D837E838F839887F80165ABE8
:101E600076AB87AB90AFC501B4010E945A229B01AB
:101E7000AC01F801E75BFF4F80819181A281B381C2
:101E8000898B9A8BAB8BBC8BC701B6010E94781EE5
:101E900029893A894B895C890E94AD1F6D8B7E8BA5
:101EA0008F8B988FD80195966D937D938D939C938E
:101EB0009897E985FA85BF01FF0F880B990B0E945F
:101EC000191E9B01AC0160E070E080E89FEB0E946E
:101ED000B82169877A878B879C87C501B4010E94E6
:101EE00064206B017C0120E030E046E052E469852B
:101EF0007A858B859C850E94781EA70196010E9499
:101F0000781EA30192010E94AE1F6B017C01F801B3
:101F1000EF5AFF4FC082D182E282F382298D3A8D3F
:101F20004B8D5C8D60E070E080E89FEB0E94B821F3
:101F30002B013C01C501B4010E9408224B015C0148
:101F400020E030E046E052E4C301B2010E94781E76
:101F5000A50194010E94781E29893A894B895C89E0
:101F60000E94AE1F4B015C01F801EB5AFF4F8082CB
:101F70009182A282B38234968D859E85AF85B88981
:101F800080839183A283B38320E030E0A901C7015D
:101F9000B6010E94AB21181624F0F7FAF094F7F876
:101FA000F094A701960169817A818B819C810E94BE
:101FB000AD1F6B017C01D801D996CD92DD92ED92D7
:101FC000FC92DC97A50194016D897E898F89988D9B
:101FD0000E94AE1F4B015C01F801FD968082918248
:101FE000A282B38234968D819E81AF81B885808331
:101FF0009183A283B383A7019601C701B6010E9412
:10200000781E6B017C01A5019401C501B4010E94F9
:10201000781E9B01AC01C701B6010E94AE1F0E9451
:1020200016229B01AC016D817E818F8198850E9473
:1020300069200E9435204B015C012D813E814F813A
:102040005885CA01B9010E94AD1F6B017C01C8010E
:102050008D960E94410E9B01AC01C701B6010E9402
:1020600069200E941A2069837A838B839C83D8011C
:10207000D996BE83AD83CD010E94410E6B017C01D8
:10208000AC019B010E94781E20E034EA4EE455E446
:102090000E94AE1F20E034E847E456E40E94AD1FE2
:1020A0002B013C0120E030E046EE52E4C701B601CE
:1020B0000E94781E9B01AC01C301B2010E946920FD
:1020C0000E949C1F6B017C0129813A814B815C81BC
:1020D000C501B4010E94AE1F9B01AC01C701B6014E
:1020E0000E94AD1F29853A854B855C850E94781E2C
:1020F000F80166877787808B918B8D819E810E9406
:10210000410E9B01AC010E94781E9B01AC0160E076
:102110007DE28BE796E40E94AD1F20E03CE04BE4BB
:1021200056E40E9469200E949C1F9B01AC016BED4C
:102130007FE089E490E40E94AD1F29853A854B85B4
:102140005C850E94781ED80159966D937D938D937E
:102150009C935C976C960FB6F894DEBF0FBECDBF14
:10216000DF91CF911F910F91FF90EF90DF90CF9073
:10217000BF90AF909F908F907F906F905F904F90A7
:1021800008958F929F92AF92BF92EF92FF920F931A
:102190001F93CF93DF937C01B62E0E949E078C0184
:1021A000C091A303D091A403CF3FDC0791F4F801C1
:1021B0002185328537FF03C0319521953109F8011A
:1021C000C781D085D7FF03C0D195C195D109C20F72
:1021D000D31F6B2D70E090E080E00E94171E9B01E2
:1021E000AC0160E070E080E89FEB0E94B8214B01F9
:1021F0005C016091AF037091B003CE010E949D23FA
:10220000072E000C880B990B0E94191EA501940142
:102210000E94781E9B01AC01F80163817481858165
:1022200096810E94AE1FF801638374838583968331
:10223000C701DF91CF911F910F91FF90EF90BF9059
:10224000AF909F908F900C94880E1F920F920FB6B4
:102250000F9211240BB60F922F933F934F935F93DE
:102260006F937F938F939F93AF93BF93EF93FF935E
:102270008FEB93E00E945803FF91EF91BF91AF91D4
:102280009F918F917F916F915F914F913F912F918E
:102290000F900BBE0F900FBE0F901F9018951F92BE
:1022A0000F920FB60F9211240BB60F922F938F93AC
:1022B0009F93EF93FF93E091CF03F091D003808140
:1022C000E091D503F091D60382FD1DC090818091ED
:1022D000D8038F5F8F732091D903821741F0E0916B
:1022E000D803F0E0E154FC4F958F8093D803FF9121
:1022F000EF919F918F912F910F900BBE0F900FBE7A
:102300000F901F9018958081F2CF1F920F920FB6F9
:102310000F9211240BB60F922F933F934F935F931D
:102320006F937F938F939F93AF93BF93EF93FF939D
:102330008CE594E00E945803FF91EF91BF91AF911B
:102340009F918F917F916F915F914F913F912F91CD
:102350000F900BBE0F900FBE0F901F9018951F92FD
:102360000F920FB60F9211240BB60F922F938F93EB
:102370009F93EF93FF93E0916C04F0916D04808143
:10238000E0917204F091730482FD1DC090818091F0
:1023900075048F5F8F7320917604821741F0E0916E
:1023A0007504F0E0E45AFB4F958F80937504FF911C
:1023B000EF919F918F912F910F900BBE0F900FBEB9
:1023C0000F901F9018958081F2CF1F920F920FB639
:1023D0000F9211242F933F938F939F93AF93BF93AB
:1023E0008091BB039091BC03A091BD03B091BE034B
:1023F00030919E0323E0230F2D3758F50196A11D40
:10240000B11D20939E038093BB039093BC03A093C4
:10241000BD03B093BE0380919F039091A003A09150
:10242000A103B091A2030196A11DB11D80939F034A
:102430009093A003A093A103B093A203BF91AF9187
:102440009F918F913F912F910F900FBE0F901F90F2
:10245000189526E8230F0296A11DB11DD2CF1F9219
:102460000F920FB60F9211240F900FBE0F901F9076
:1024700018951F920F920FB60F9211240BB60F9260
:102480002F933F934F935F936F937F938F939F937C
:10249000AF93BF93EF93FF9348E251E064E271E0A2
:1024A00090E080E00E948106FF91EF91BF91AF9193
:1024B0009F918F917F916F915F914F913F912F915C
:1024C0000F900BBE0F900FBE0F901F9018951F928C
:1024D0000F920FB60F9211240BB60F922F933F93CA
:1024E0004F935F936F937F938F939F93AF93BF931C
:1024F000EF93FF9348EA50E064EA70E083E090E0F5
:102500000E948106FF91EF91BF91AF919F918F91B2
:102510007F916F915F914F913F912F910F900BBEE3
:102520000F900FBE0F901F9018951F920F920FB62D
:102530000F9211240BB60F922F933F934F935F93FB
:102540006F937F938F939F93AF93BF93EF93FF937B
:1025500048E950E064E970E082E090E00E94810682
:10256000FF91EF91BF91AF919F918F917F916F916B
:102570005F914F913F912F910F900BBE0F900FBE27
:102580000F901F9018951F920F920FB60F92112463
:102590000BB60F922F933F934F935F936F937F935D
:1025A0008F939F93AF93BF93EF93FF9348E850E0CF
:1025B00064E870E081E090E00E948106FF91EF9175
:1025C000BF91AF919F918F917F916F915F914F914B
:1025D0003F912F910F900BBE0F900FBE0F901F9049
:1025E0001895FC0190910A03903398F481E0890FCB
:1025F00080930A039083892F90E0FC01EE0FFF1F68
:10260000E80FF91FE55FFC4F88EB9BE09283818325
:1026100008958FEF80830895CF93DF93EC010E949C
:10262000F112CE010B960E94F112CE014696DF9177
:10263000CF910C94F112EFEBF3E01382128248EE8B
:1026400053E060E070E0448355836683778387E1DD
:1026500092E0918380832DEC30E0358724872CEC49
:1026600030E03787268728EC30E0318B208B29EC4F
:1026700030E0338B228B2AEC30E0358B248B2EEC30
:1026800030E0378B268B118E128E138E148EECE574
:10269000F4E01382128244835583668377839183A7
:1026A000808385EC90E09587848784EC90E0978721
:1026B000868780EC90E0918B808B81EC90E0938B0F
:1026C000828B82EC90E0958B848B86EC90E0978BEC
:1026D000868B118E128E138E148E8DEC96E00E94D6
:1026E0000C1380E796E00E940C1383E196E00E94B1
:1026F0000C1386EB95E00E940C1389E595E00E948F
:102700000C138CEF94E00E940C1389EF94E00C946E
:10271000F112CF93DF93CDB7DEB76C970FB6F89475
:10272000DEBF0FBECDBF789484B5826084BD84B512
:10273000816084BD85B5826085BD85B5816085BDBC
:1027400080916E00816080936E0010928100809174
:1027500081008260809381008091810081608093FC
:102760008100809180008160809380008091B10021
:1027700084608093B1008091B00081608093B0004C
:10278000809191008260809391008091910081609E
:10279000809391008091900081608093900080915F
:1027A000A10082608093A1008091A100816080934C
:1027B000A10080EA90E02091A00021602093A00079
:1027C000209121012260209321012091210121608B
:1027D000209321012091200121602093200120914C
:1027E0007A00246020937A0020917A00226020935E
:1027F0007A0020917A00216020937A0020917A005B
:10280000206820937A001092C100E0916C04F0914E
:102810006D0442E04083E0916804F0916904108205
:10282000E0916A04F0916B0420E12083109274041B
:10283000E0917004F091710436E03083E0916E0411
:10284000F0916F04208120612083E0916E04F0916B
:102850006F04208128602083E0916E04F0916F0462
:10286000208120682083E0916E04F0916F04208124
:102870002F7D2083E091CF03F091D0034083E0913E
:10288000CB03F091CC031082E091CD03F091CE0305
:102890002FEC20831092D703E091D303F091D4035F
:1028A0003083E091D103F091D20320812061208315
:1028B000E091D103F091D203208128602083E09140
:1028C000D103F091D203208120682083E091D103CD
:1028D000F091D20320812F7D20831092D506109293
:1028E000D40628E230E03093D7062093D606A4EC35
:1028F000BFEFB093E006A093DF06EDE2F0E0F093C7
:10290000E206E093E10660E67FEF7093EB066093EA
:10291000EA061092ED061092EC06C12CD12C44E68A
:10292000E42E42ECF42EC0921607D0921707E092E4
:102930001807F092190728ED3FEF3093780620939F
:10294000770610927A061092790643ED5FEF509366
:102950008306409382062CE330E030938506209373
:10296000840610928E0610928D06909390068093A6
:102970008F06C092B906D092BA06E092BB06F092DA
:10298000BC0610921B0610921A0604E110E0109388
:102990001D0600931C06B0932606A0932506F0930F
:1029A0002806E09327067093310660933006109254
:1029B00033061092320610925C0610925D06109259
:1029C0005E0610925F060CEE1FEF1093BE0500939B
:1029D000BD051092C0051092BF055093C9054093E4
:1029E000C8053093CB052093CA051092D4051092E8
:1029F000D3059093D6058093D5051092FF051092CC
:102A00000006109201061092020602EE1FEF1093CC
:102A10006105009360050FE010E0109363050093DB
:102A20006205B0936C05A0936B05F0936E05E0937F
:102A30006D05709377056093760510927905109275
:102A40007805C12CD12C64E6E62E62E4F62EC09205
:102A5000A205D092A305E092A405F092A50561EF2E
:102A60007FEF70930405609303056EE170E070934F
:102A700006056093050550930F0540930E053093AE
:102A800011052093100510921A05109219059093C4
:102A90001C0580931B05C0924505D0924605E09227
:102AA0004705F092480586E696E6A2E8B1EC8093E9
:102AB000490590934A05A0934B05B0934C0580932C
:102AC000A6059093A705A093A805B093A9058093A8
:102AD000030690930406A0930506B0930606809320
:102AE000600690936106A0936206B093630680939C
:102AF000BD069093BE06A093BF06B093C006809318
:102B00001A0790931B07A0931C07B0931D0780E042
:102B100090E0ACEBB1EC80939E0590939F05A09361
:102B2000A005B093A1058093580690935906A093F1
:102B30005A06B0935B068093120790931307A093F5
:102B40001407B093150780E090E0ACEBB1E48093FC
:102B5000410590934205A0934305B09344058093AB
:102B6000FB059093FC05A093FD05B093FE058093B3
:102B7000B5069093B606A093B706B093B80662E286
:102B800070E08DEC96E00E94DD0564E270E088ED77
:102B900096E00E94DD0566E270E083EE96E00E941A
:102BA000DD0567E170E080E796E00E94DD0569E100
:102BB00070E08BE796E00E94DD056BE170E086E84F
:102BC00096E00E94DD056CE170E083E196E00E94F2
:102BD000DD056EE170E08EE196E00E94DD0560E2C9
:102BE00070E089E296E00E94DD056DE170E086EB21
:102BF00095E00E94DD056FE170E081EC95E00E94B8
:102C0000DD0561E270E08CEC95E00E94DD0566E197
:102C100070E089E595E00E94DD0568E170E084E6FA
:102C200095E00E94DD056AE170E08FE695E00E9484
:102C3000DD0563E270E08CEF94E00E94DD0565E263
:102C400070E087E095E00E94DD0567E270E082E1D8
:102C500095E00E94DD0586E692E00E942A086FE278
:102C600070E089EF94E00E94DD0581E090E09093B0
:102C7000BA038093B9038AE090E09093B003809305
:102C8000AF038FEF9FEF9093A4038093A30380E0A3
:102C900090E0A0EFB2E48093B5039093B603A093C5
:102CA000B703B093B80380E090E0A0EAB2E4809369
:102CB000B1039093B203A093B303B093B4037E0126
:102CC0002DE0E20EF11C8E010F5F1F4F8091A503D6
:102CD000811150C08CE20E947B04019709F04AC028
:102CE000C7010E94460A8EE692E00E942A086BE71E
:102CF00072E0C7010E94530A4091B5035091B60398
:102D00006091B7037091B803C7010E94F40964E8A9
:102D100072E0C7010E94EA094091B1035091B203E9
:102D20006091B3037091B403C7010E94F4096EE887
:102D300072E0C7010E94EA09809100024AE0B801EE
:102D400090E00E940D1AF80101900020E9F73197F8
:102D5000AF01401B510BB801C7010E94BE0966E9D3
:102D600072E0C7010E94EA0931E03093A503C70170
:102D70000E948E098CE20E947B04892B11F4109230
:102D8000A5038FEB93E00E943803181619060CF088
:102D900040C1C7010E94460A0E94EA0297FD09C08D
:102DA00089831A8241E050E0B801C7010E94BE0940
:102DB000F3CF1A8219821C821B821E821D82B701E8
:102DC000C8010E94A70A80E290E00E94CD234C0136
:102DD00025E030E04EE7B8010E94E20AC8010E94F7
:102DE0008E09B12CA12CF401868D978DA816B906F9
:102DF0000CF00CC1A501B401C8010E94BE0ACD802F
:102E0000DE80C8010E948E09CD2809F4FFC0A5010B
:102E1000B401C8010E94BE0A80E290E00E94CD2366
:102E20006C0123E030E046E2B8010E94E20AC801EA
:102E30000E948E0988E992E00E94280850E040E054
:102E4000B601C8010E94BE0A4D815E8169817A8106
:102E50008CE594E00E949A0285E292E00E94D707F6
:102E6000C8010E948E0950E040E0B601C8010E94EE
:102E7000BE0A62EA72E0C8010E942E09582EC801FB
:102E80000E948E09552031F01092AE033FEFA31A35
:102E9000B30AA9CF50E040E0B601C8010E94BE0AC3
:102EA00060EB72E0C8010E942E09582EC8010E94F2
:102EB0008E09552021F0F1E0F093AE03E7CF50E00A
:102EC00040E0B601C8010E94BE0A6FEB72E0C80183
:102ED0000E942E09582EC8010E948E09552009F41F
:102EE00059C041E050E0B601C8010E94BE0AC801C5
:102EF0000E9423090E941409C8010E948E0942E021
:102F000050E0B601C8010E94BE0AC8010E94230910
:102F10000E941409C8010E948E0941E050E0B601E8
:102F2000C8010E94BE0AC8010E9423096093AA0337
:102F30007093AB038093AC039093AD03C8010E94E0
:102F40008E0942E050E0B601C8010E94BE0AC801E5
:102F50000E9423096093A6037093A7038093A8039C
:102F60009093A903C8010E948E096091AA037091F1
:102F7000AB038091AC039091AD030E941409609162
:102F8000A6037091A7038091A8039091A9030E94C2
:102F900014097CCF50E040E0B601C8010E94BE0A8F
:102FA00067ED72E0C8010E942E09582EC8010E94E8
:102FB0008E09552009F46ACF41E050E0B601C801FE
:102FC0000E94BE0A6CED72E0C8010E942E09582EC4
:102FD000C8010E948E09552019F01092000256CFA8
:102FE00041E050E0B601C8010E94BE0A61EE72E005
:102FF000C8010E942E09D82EC8010E948E09DD202A
:1030000009F444CF21E02093000240CFC7010E9481
:103010008E0980910002811110C08091B9039091B6
:10302000BA038130910509F47BC054F48F3F9807AF
:1030300009F445C0892B09F45AC00E94E70346CE23
:1030400082309105D1F30397C1F70E943B078CE0D2
:10305000E7E0F2E0D80101900D928A95E1F758017E
:10306000F501C190D1905F01C6010E949E074C01FD
:103070008091B5039091B603A091B703B091B803C6
:10308000F40181A392A3A3A3B4A38091B10390916F
:10309000B203A091B303B091B40381A792A7A3A7F1
:1030A000B4A7C6010E94880EB601C4010E94CB0DD0
:1030B000C6010E94D70CAE14BF0491F6BECF87EEB6
:1030C00092E00E9428088CEE92E00E94280881EF8E
:1030D00092E00E94280886EF92E00E9428088BEF79
:1030E00092E00E94280880E093E00E942A0887EE80
:1030F00092E00E9428088CEE92E00E94280881EF5E
:1031000092E00E94280886EF92E00E9428088BEF48
:1031100092E00E94280880E093E00E942A088DCF68
:103120000E943B0781E090E09C8B8B8B662463942C
:10313000712C8091AF039091B003861597050CF424
:10314000E9C02B893C89233031050CF076CF812CE6
:10315000AA24A394B12C9301072C000C440B550B0B
:103160002D8B3E8B4F8B588F9C01990F440B550B29
:10317000298F3A8F4B8F5C8FC5010E949E076C018F
:1031800031E0A316B10429F0C5010497029708F0B5
:10319000C7C08091B5039091B603A091B703B091D9
:1031A000B803F60181A392A3A3A3B4A38091B103B2
:1031B0009091B203A091B303B091B40381A792A7F9
:1031C000A3A7B4A79090AE03C501039761E069255A
:1031D000029708F0692DC5010E94C110C60103962F
:1031E0000E948407C6010E960E948407C601499674
:1031F0000E948407F60123803480458056806185D3
:103200007285072E000C880B990B0E94191E9B01DA
:10321000AC01C201B1010E94AB2187FFD9C0F60108
:1032200067817085072E000C880B990B0E94191E70
:103230009B01AC01C201B1010E94121E18160CF0D4
:10324000C7C02BED3FE049E450E4C201B1010E9448
:10325000781E20E030E044E353E40E946920F60148
:1032600063837483858396832BED3FE049E450E4C8
:1032700066857785808991890E94781E20E030E0FC
:1032800044E353E40E946920F60166877787808BC8
:10329000918B2BED3FE049E450E4618D728D838D7D
:1032A000948D0E94781E20E030E044E353E40E94B5
:1032B0006920F601618F728F838F948FFFEFAF1AB1
:1032C000BF0A27E0A216B10409F056CF882051F0BA
:1032D0004B895C894F5F5F4F5C8B4B8B51E0952630
:1032E0009092AE03CC24C394D12CC6010E949E07B9
:1032F000B6010E94CB0D8FEFC81AD80A97E0C91605
:10330000D10499F790E080E00E94D70CEFEF6E1A9D
:103310007E0A0FCFEB89FC8933970CF407CF8DCE53
:10332000C5010297029728F0F6E0AF16B10409F044
:1033300049CF6D897E898F89988D0E94191E1B0146
:103340002C01698D7A8D8B8D9C8D0E94191E9B019D
:10335000AC01C201B1010E9469202BED3FE049E4BC
:1033600050E40E94781E0E9408221B012C0120E0DC
:1033700030E040E850E40E94781E9B01AC0160916F
:10338000B5037091B6038091B7039091B8030E9482
:10339000AE1FF60161A372A383A394A320E030E0E3
:1033A00040E451E4C201B1010E94781E9B01AC01CE
:1033B0006091B1037091B2038091B3039091B40313
:1033C0000E94AD1FF60161A772A783A794A7FACE4A
:1033D0008824839436CFEF920F931F93CF93DF937C
:1033E000E80134E047FD34E1042E000C550B57FF93
:1033F00003C0519541955109E32E022F242FAE01B0
:103400000E94321ACE01DF91CF911F910F91EF9060
:103410000895662777270C94AB1BBB274A3031F4FD
:10342000992322F4BDE2909581959F4F0C94191A2F
:10343000BB27FB015527AA27880F991FAA1FA4178E
:1034400010F0A41B83955051B9F7A05DAA3308F082
:10345000A95DA193009779F7B111B1931192CB01B6
:103460000C94021E8F929F92AF92BF92CF92DF92E6
:10347000EF92FF920F931F93CF93DF9300D000D072
:1034800000D0CDB7DEB76A01F22EB02E102FFBE3CD
:10349000AF2EA01608F41BE31F5F012F27E0AE013B
:1034A0004F5F5F4F0E94091DBC018981982F997061
:1034B000913009F44EC09BE2E1FC04C09E2D917056
:1034C000E0FC49C05E2D5071E82FE87083FF55C0C5
:1034D00084E0911101C083E0EF2DE81B8F1508F007
:1034E000E0E0D6018E2F20E25523C9F1992329F07F
:1034F000D6019C93C60101966C0196012D5F3F4F4A
:10350000E2FE33C08EE4D6018C9391E411969C9335
:10351000119712968C93D9018E2F90E281112AC0B7
:10352000E20FF32FF11D10828EEF9FEF29960FB659
:10353000F894DEBF0FBECDBFDF91CF911F910F91E9
:10354000FF90EF90DF90CF90BF90AF909F908F90C3
:1035500008959DE2B7CF90E2B5CF2D9381508111B0
:10356000FCCFCE0ED11CE0E0C1CF8EE6D6018C930D
:1035700091E6CCCF9D938150D1CF482F447082FFEC
:103580003DC084E0911101C083E08F1510F4EF2D50
:10359000E81BD6018E2F20E2552309F1992329F04B
:1035A000D6019C93C60101966C0196012D5F3F4F99
:1035B000E2FE1BC089E4D6018C938EE411968C93B5
:1035C000119786E412968C93D9018E2F90E288236E
:1035D00009F4A6CF9D938150FACF2D93815081118C
:1035E000FCCFCE0ED11CE0E0D9CF89E6D6018C937A
:1035F0008EE611968C93119786E6E4CF9B0177FFB8
:1036000002C030E020E0A1E0B0E0911102C0B0E0E3
:10361000A0E0F9013196AE0FBF1F8B2C912CBB207F
:1036200009F461C05401EFEFAE1ABE0AAA0DBB1D2A
:10363000FA161B0619F014F04F2D4A1B511188C0C1
:10364000E3FC59C07601A42FB0E2A1114FC0C40E13
:10365000D11C992309F45BC040E0D6011196F60114
:1036600090836D01552309F448C0012F060F9A81FC
:10367000582F507184FF03C0913309F40150101684
:103680000CF047C0093008F008E0EEE2FE2E5B01C6
:10369000A01AB10885019194819491082F3F3207B7
:1036A00029F4D601FC92F60131966F016217730777
:1036B00094F1021713077CF5DB01A21BB30BAA24BC
:1036C000A394B12CAC0EBD1EAA0DBB1D11968C91FE
:1036D00021503109D601119628153905F4F0F6016B
:1036E00080836D01DBCFB12CA12CA0CFF701B1936A
:1036F0007F01A150AACF9111B0CFD601942F50E3F2
:1037000002C05D9391509111FCCFC40ED11C40E0DA
:10371000ACCF01E0BACF80E3DBCF6217730731F49F
:10372000963388F4953311F4552369F0F6018083BC
:10373000FD01842F90E2811108C0A40FB11D1C92DD
:1037400090E080E0F3CE81E3F1CF91938150F3CF0D
:10375000911183CF8ACF8F929F92AF92BF92CF92D7
:10376000DF92EF92FF920F931F93CF93DF935C0151
:103770007B016115710519F0DB018D939C93850127
:103780000F5F1F4FF501D0818D2F90E00E94E11D4A
:103790006C01892BB9F5DD32B9F50F5F1F4FD501EB
:1037A0001196DC91C1E05801F1E0AF1AB10843E095
:1037B00050E06CE772E0C5010E94EA1D892B69F5B3
:1037C000680182E0C80ED11C45E050E067E772E076
:1037D000C6010E94EA1D892B21F4680197E0C90EF9
:1037E000D11CE114F10419F0D701CD92DC9260E014
:1037F00070E080E89FEFC111FFC060E070E080E8FA
:103800009FE7FAC05801BBCFDB3229F485010E5F78
:103810001F4FF501D181C0E0C6CF43E050E064E71F
:1038200072E0C5010E94EA1D892BE9F0F80110E061
:1038300000E020E030E0A9015F01B0ED8B2E8D0E9D
:1038400089E08815C8F19C2E689491F88C2F8870B7
:10385000C2FF16C0811102C00F5F1F4F3196D50104
:10386000DC91C92DE9CFE114F10429F00E5F1F4F5F
:10387000F7011183008360E070E080EC9FE7BCC03B
:10388000882311F001501109A5E0B0E00E94581FF3
:103890009B01AC01220F331F441F551F280D311D02
:1038A000411D511D283999E93907490799E15907FF
:1038B000A8F2C6609C2ED2CFAEEF8A1206C0C3FD1E
:1038C0003CC09C2E689493F8C9CFDF7DD534A9F510
:1038D00080818D3239F4C061DF011296818162E00E
:1038E00070E006C0DF018B32C1F3119661E070E039
:1038F00080535D01A61AB70A8A30F8F4E0E8CE16C4
:10390000ECE0DE065CF4B601660F771F660F771FEA
:10391000C60ED71ECC0CDD1CC80ED11C5D01FFEFFE
:10392000AF1ABF0A8C9180538A30A8F1C4FF03C03C
:10393000D194C194D1080C0D1D1DC1FF09C0E11423
:10394000F10431F081E0A81AB108D701AD92BC9220
:10395000CA01B9010E94171EC370C33009F4905800
:103960004B015C0120E030E0A9010E94121E882377
:1039700009F440C0CBEAD2E017FF05C011950195CC
:103980001109C3E9D2E06E01B8E1CB1AD10880E297
:10399000E82EF12C0FC0D501B1CFFE012591359154
:1039A000459154910E191F09C501B4010E94781E5A
:1039B0004B015C01D501C4010E151F0574F7249756
:1039C000F594E794CC16DD06A9F78A2F880F8B2F84
:1039D000881F8F3F49F020E030E0A901C501B40104
:1039E0000E94121E811106C082E290E090932B0784
:1039F00080932A07C501B401DF91CF911F910F91E8
:103A0000FF90EF90DF90CF90BF90AF909F908F90FE
:103A10000895283008F027E03327DA01990F311D87
:103A200087FD916000966105710539F432602E5F63
:103A30003D9330E32A95E1F708959F3F30F08038B9
:103A40007105610509F03C5F3C5F3D93913008F0E2
:103A50008068911DDF93CF931F930F93FF92EF9296
:103A6000192F987F9695E92F96959695E90FFF2740
:103A7000E75FFC4F99273327EE24FF24A701E701D6
:103A800005900894079428F4360FE71EF81E491F86
:103A9000511D660F771F881F991F0694A1F7059087
:103AA000079428F4E70EF81E491F561FC11D770F13
:103AB000881F991F661F0694A1F70590079428F4A4
:103AC000F80E491F561FC71FD11D880F991F661F6B
:103AD000771F0694A1F70590079420F4490F561F0D
:103AE000C71FD81F990F661F771F881F0694A9F755
:103AF00084911095177041F0D695C79557954795C5
:103B0000F794E7941A95C1F7EFEAF2E068941590FC
:103B1000159135916591959105907FE27395E11826
:103B2000F10A430B560BC90BD009C0F7E10CF11E8B
:103B3000431F561FC91FD01D7EF4703311F48A95A0
:103B4000E6CFE894015030F0080F0AF4002702177E
:103B500008F4202F2395022F7A3328F079E37D9300
:103B60002A95E9F710C07D932A9589F606949795D2
:103B70006795379517951794E118F10A430B560B83
:103B8000C90BD00998F023957E9173957A3308F08C
:103B900070E37C932013B8F77E9170617D9330F0D1
:103BA000839571E37D9370E32A95E1F71124EF90FB
:103BB000FF900F911F91CF91DF91992787FD9095ED
:103BC000089591110C94E51E803219F089508550AA
:103BD000C8F70895FB01DC014150504088F08D91F9
:103BE00081341CF08B350CF4805E659161341CF0DF
:103BF0006B350CF4605E861B611171F3990B0895AF
:103C0000881BFCCFDC01FC01672F71917723E1F762
:103C1000329704C07C916D9370836291AE17BF0799
:103C2000C8F308950E94541E08F481E00895E894B2
:103C300009C097FB3EF490958095709561957F4FF4
:103C40008F4F9F4F9923A9F0F92F96E9BB279395A2
:103C5000F695879577956795B795F111F8CFFAF4B2
:103C6000BB0F11F460FF1BC06F5F7F4F8F4F9F4FE3
:103C700016C0882311F096E911C0772321F09EE841
:103C8000872F762F05C0662371F096E8862F70E0A7
:103C900060E02AF09A95660F771F881FDAF7880F81
:103CA0009695879597F90895990F0008550FAA0BD7
:103CB000E0E8FEEF16161706E807F907C0F012163F
:103CC0001306E407F50798F0621B730B840B950B42
:103CD00039F40A2661F0232B242B252B21F4089597
:103CE0000A2609F4A140A6958FEF811D811D089534
:103CF0000E948B1E0C94FF1E0E94F11E38F00E9441
:103D0000F81E20F0952311F00C94E81E0C94EE1E82
:103D100011240C94331F0E94101F70F3959FC1F360
:103D2000950F50E0551F629FF001729FBB27F00D69
:103D3000B11D639FAA27F00DB11DAA1F649F6627BE
:103D4000B00DA11D661F829F2227B00DA11D621F0D
:103D5000739FB00DA11D621F839FA00D611D221FC7
:103D6000749F3327A00D611D231F849F600D211DAB
:103D7000822F762F6A2F11249F5750409AF0F1F02E
:103D800088234AF0EE0FFF1FBB1F661F771F881F97
:103D900091505040A9F79E3F510580F00C94E81EC9
:103DA0000C94331F5F3FE4F3983ED4F386957795E8
:103DB0006795B795F795E7959F5FC1F7FE2B880F3D
:103DC000911D9695879597F90895992788270895C5
:103DD00097F99F6780E870E060E008959FEF80ECBE
:103DE000089500240A941616170618060906089561
:103DF00000240A9412161306140605060895092EC7
:103E00000394000C11F4882352F0BB0F40F4BF2B35
:103E100011F460FF04C06F5F7F4F8F4F9F4F089575
:103E200057FD9058440F551F59F05F3F71F047956B
:103E3000880F97FB991F61F09F3F79F08795089550
:103E4000121613061406551FF2CF4695F1DF08C06F
:103E5000161617061806991FF1CF8695710561058C
:103E600008940895E894BB2766277727CB0197F934
:103E70000895052E97FB1EF400940E94501F57FDD5
:103E800007D00E946B1F07FC03D04EF40C94501F08
:103E900050954095309521953F4F4F4F5F4F089576
:103EA00090958095709561957F4F8F4F9F4F0895A6
:103EB0000E948D1FA59F900DB49F900DA49F800D13
:103EC000911D11240895B7FF0C94581F0E94581F8C
:103ED000821B930B0895A1E21A2EAA1BBB1BFD01A6
:103EE0000DC0AA1FBB1FEE1FFF1FA217B307E407D9
:103EF000F50720F0A21BB30BE40BF50B661F771F31
:103F0000881F991F1A9469F7609570958095909510
:103F10009B01AC01BD01CF010895A29FB001B39FE9
:103F2000C001A39F700D811D1124911DB29F700DC2
:103F3000811D1124911D08959F939F770E94112147
:103F40000F90002042F49058A2EA2AED3FE049E4A5
:103F500050E40E94C51F0C94FF1E5058BB27AA278F
:103F60000E94C51F0C94FF1E0E94F11E38F00E9493
:103F7000F81E20F039F49F3F19F426F40C94EE1E3D
:103F80000EF4E095E7FB0C94E81EE92F0E94101F49
:103F900058F3BA17620773078407950720F079F47E
:103FA000A6F50C94321F0EF4E0950B2EBA2FA02D1F
:103FB0000B01B90190010C01CA01A0011124FF27D6
:103FC000591B99F0593F50F4503E68F11A16F040D1
:103FD000A22F232F342F4427585FF3CF46953795D0
:103FE0002795A795F0405395C9F77EF41F16BA0B95
:103FF000620B730B840BBAF09150A1F0FF0FBB1F43
:10400000661F771F881FC2F70EC0BA0F621F731F8B
:10401000841F48F4879577956795B795F7959E3FE8
:1040200008F0B0CF9395880F08F09927EE0F979579
:10403000879508959F939F77EEE389379E0728F42D
:10404000E4EEF0E00E9458210CC00E94112190582B
:10405000A2EA2AED3FE049EC5FE30E94C51F0E94FF
:10406000FF1E0F9007FC90580895DF93DD27B92FAE
:10407000BF7740E85FE31616170648075B0718F49A
:10408000D92F0E94B0219F938F937F936F930E94AB
:104090005622E8EFF0E00E9431210E94FF1E2F918E
:1040A0003F914F915F910E948B1EDD2351F09058FC
:1040B000A2EA2AED3FE049EC5FE3D0785D270E9459
:1040C000C51FDF910C94FF1E0E946E21E3950C9496
:1040D00097210E947D200C94FF1E0E94F81E58F02C
:1040E0000E94F11E40F029F45F3F29F00C94E81E75
:1040F00051110C94331F0C94EE1E0E94101F68F394
:104100009923B1F3552391F3951B550BBB27AA2790
:1041100062177307840738F09F5F5F4F220F331FCA
:10412000441FAA1FA9F335D00E2E3AF0E0E832D092
:1041300091505040E695001CCAF72BD0FE2F29D095
:10414000660F771F881FBB1F261737074807AB0767
:10415000B0E809F0BB0B802DBF01FF2793585F4FDC
:104160003AF09E3F510578F00C94E81E0C94331FF2
:104170005F3FE4F3983ED4F3869577956795B795BE
:10418000F7959F5FC9F7880F911D9695879597F9C9
:104190000895E1E0660F771F881FBB1F6217730742
:1041A0008407BA0720F0621B730B840BBA0BEE1F57
:1041B00088F7E09508950E94E2206894B1110C946C
:1041C000331F08950E94181F88F09F5798F0B92F49
:1041D0009927B751B0F0E1F0660F771F881F991F3C
:1041E0001AF0BA95C9F714C0B13091F00E94321F8D
:1041F000B1E008950C94321F672F782F8827B85F9D
:1042000039F0B93FCCF3869577956795B395D9F793
:104210003EF490958095709561957F4F8F4F9F4F9D
:104220000895DF93CF931F930F938B01EC01E5E289
:10423000F1E00E9431210E94FF1E9801AE018B0126
:10424000EC0160E070E080E89FE30E94AD1F0E94F7
:1042500016229801AE010F911F91CF91DF910C941E
:104260008B1EDF93CF931F930F93FF92EF92DF92FA
:104270007B018C01689406C0DA2EEF010E948B1E30
:10428000FE01E894A5912591359145915591A6F3AC
:10429000EF010E94C51FFE019701A801DA9469F79A
:1042A000DF90EF90FF900F911F91CF91DF910895D4
:1042B0009F938F937F936F93FF93EF939B01AC0139
:1042C0000E94781EEF91FF910E9431212F913F9122
:1042D0004F915F910C94781E0C94EE1E0E94181F53
:1042E000D8F3E894E0E0BB279F57F0F02AED3FE0D9
:1042F00049EC06C0EE0FBB0F661F771F881F28F022
:10430000B23A62077307840728F0B25A620B730B44
:10431000840BE3959A9572F7803830F49A95BB0F29
:10432000661F771F881FD2F790480C94C022EF9326
:10433000E0FF07C0A2EA2AED3FE049EC5FEB0E94F4
:10434000C51F0E94FF1E0F90039401FC9058EDE4DE
:10435000F1E00C9458210E94541E08F48FEF089548
:104360009B01AC0160E070E080E89FE30C94692061
:10437000FA01EE0FFF1F309621053105A1F16115FD
:10438000710561F48038BFE39B0749F16894903868
:10439000810561F08038BFEF9B0741F099234AF512
:1043A000FF3FE1053105210519F1E8940894E795EF
:1043B000D901AA2329F4AB2FBE2FF85FD0F310C088
:1043C000FF5F70F4A695E0F7F73950F019F0FF3A67
:1043D00038F49F779F930DD00F9007FC9058089565
:1043E00046F00C94EE1E60E070E080E89FE30895D4
:1043F0004FE79F775F934F933F932F930E9415232F
:104400002F913F914F915F910E94781E0C948C22C6
:104410009F930E946E210F9007FCEE5F0C949721F2
:1044200019F416F40C94EE1E0C94BE220E94181F70
:10443000B8F39923C9F3B6F39F57550B87FF0E9432
:10444000CC220024A0E640EA90018058569597952A
:1044500028F4805C660F771F881F20F02617370727
:10446000480730F4621B730B840B202931294A2B37
:10447000A69517940794202531254A2758F7660FEB
:10448000771F881F20F026173707480730F4620B84
:10449000730B840B200D311D411DA09581F7B901CF
:1044A000842F9158880F9695879508959B01AC01AC
:1044B0000C94781EDF93D92F0E946E21E695D79534
:1044C0002AED3FE049E45FE3B33A620773078407EC
:1044D0009507D7953AF0A2EA49EC90680E94C51F6B
:1044E0000E94FF1EEBE6F1E00E945821DD0F13F061
:1044F0000E94B021DD0F0BF49058DF9108950E94C7
:10450000541E880B990B089529F416F00C94E81E9C
:104510000C94321F0C94EE1E0E94181FA8F39638BC
:10452000A0F707F80F92E8942BE33AEA48EB5FE72D
:104530000E948E1E0F920F920F924DB75EB70F9290
:104540000E945D23EEE8F1E00E9431214F915F91DE
:10455000EF91FF91E595EE1FFF1F49F0FE57E068D0
:104560004427EE0F441FFA95E1F74195550B0E9441
:10457000D7220F9007FE0C94B02108959F3F31F091
:10458000915020F4879577956795B795880F911D81
:104590009695879597F9089591505040660F771F2B
:1045A000881FD2F708950C94E81E0C94BE220E9436
:1045B000181FD8F39923C9F3940F511DA3F39150F9
:1045C000504094F059F0882332F0660F771F881F0F
:1045D00091505040C1F79E3F51052CF7880F911D17
:1045E0009695879597F908955F3FACF0983E9CF0BB
:1045F000BB27869577956795B79508F4B160939535
:10460000C1F7BB0F58F711F460FFE8CF6F5F7F4F22
:104610008F4F9F4FE3CF0C94331F16F00C94BE22A4
:104620000C94EE1E68940C94E81E0E94181FA8F3C8
:104630009923C1F3AEF3DF93CF931F930F93FF92B0
:10464000C92FDD2788232AF02197660F771F881F3F
:10465000DAF720E030E040E85FEB9FE3883920F0B4
:10466000803E38F021968F770E94AE1FE6EBF1E096
:1046700004C00E94AE1FE3EEF1E00E9431218B01E5
:10468000BE01EC01FB2E6F5771097595771F880BE2
:10469000990B0E94191E28E132E741E35FE30E9473
:1046A0008B1EAF2D9801AE01FF900F911F91CF91FE
:1046B000DF910E94C51F0C94FF1EFA01DC01AA0FB6
:1046C000BB1F9B01AC01BF5728F422273327442787
:1046D000507820C0B75190F4AB2F00244695379501
:1046E0002795011CA395D2F3002071F0220F331FF0
:1046F000441FB395DAF30ED00C94AD1F61307105F1
:10470000A0E88A07B94630F49B01AC0166277727F9
:1047100088279078309621F0208331834283538319
:104720000895991B79E004C0991F961708F0961B0D
:10473000881F7A95C9F78095089597FB072E16F480
:10474000009407D077FD09D00E94B92307FC05D05B
:104750003EF4909581959F4F0895709561957F4F98
:104760000895EE0FFF1F881F8BBF0790F691E02D75
:104770001994AA1BBB1B51E107C0AA1FBB1FA61798
:10478000B70710F0A61BB70B881F991F5A95A9F7FA
:1047900080959095BC01CD0108950F931F93CF9301
:1047A000DF938230910510F482E090E0E0912E07D3
:1047B000F0912F0730E020E0B0E0A0E0309799F4CE
:1047C0002115310509F44AC0281B390B2430310565
:1047D000D8F58A819B816115710589F1FB0193836D
:1047E0008283FE0111C040815181028113814817EB
:1047F0005907E0F04817590799F4109761F012969D
:104800000C93129713961C933296CF01DF91CF91A0
:104810001F910F91089500932E0710932F07F4CF47
:104820002115310551F04217530738F0A901DB017A
:104830009A01BD01DF01F801C1CFEF01F9CF9093DB
:104840002F0780932E07CDCFFE01E20FF31F819338
:1048500091932250310939832883D7CF20912C0797
:1048600030912D07232B41F4209103023091040253
:1048700030932D0720932C072091010230910202E2
:104880002115310541F42DB73EB7409105025091F5
:104890000602241B350BE0912C07F0912D07E2173F
:1048A000F307A0F42E1B3F0B2817390778F0AC0153
:1048B0004E5F5F4F2417350748F04E0F5F1F509330
:1048C0002D0740932C07819391939FCFF0E0E0E078
:1048D0009CCFCF93DF930097E9F0FC0132971382CE
:1048E0001282A0912E07B0912F07ED0130E020E059
:1048F0001097A1F420813181820F931F20912C0702
:1049000030912D072817390709F061C0F0932D0762
:10491000E0932C07DF91CF910895EA01CE17DF07CE
:10492000E8F54A815B819E0141155105B1F7E90126
:10493000FB83EA8349915991C40FD51FEC17FD07FA
:1049400061F4808191810296840F951FE90199831A
:104950008883828193819B838A83F0E0E0E01296D2
:104960008D919C9113970097B9F52D913C911197DA
:10497000CD010296820F931F20912C0730912D07B5
:104980002817390739F6309751F510922F071092F2
:104990002E07B0932D07A0932C07BCCFD383C283DF
:1049A00040815181840F951FC817D90761F44E5F6C
:1049B0005F4F88819981480F591F518340838A81B5
:1049C0009B81938382832115310509F0B0CFF09349
:1049D0002F07E0932E079ECFFD01DC01C0CF13828D
:1049E0001282D7CF4F925F926F927F928F929F9257
:1049F000AF92BF92CF92DF92EF92FF920F931F93ED
:104A0000CF93DF938C01009799F4CB01DF91CF9185
:104A10001F910F91FF90EF90DF90CF90BF90AF90DC
:104A20009F908F907F906F905F904F900C94CD23CC
:104A3000FC01E60FF71F9C0122503109E217F30732
:104A400008F4AEC0D901CD91DC911197C617D707F4
:104A500020F1C530D10578F0CE010497861797076D
:104A600050F0C61BD70B2297C193D1936D937C93C3
:104A7000CF010E946924C801DF91CF911F910F914E
:104A8000FF90EF90DF90CF90BF90AF909F908F906E
:104A90007F906F905F904F9008955B01AC1ABD0AB4
:104AA0004C018C0E9D1EA0912E07B0912F07512C0A
:104AB000412CF12CE12C109731F580912C0790912D
:104AC0002D078815990509F05CC04616570608F0B1
:104AD00058C08091010290910202009741F48DB775
:104AE0009EB74091050250910602841B950BE81772
:104AF000F90708F055C0F0932D07E0932C07F90152
:104B000071836083B8CF8D919C91119712966C90B0
:104B1000129713967C901397A815B90559F56C0157
:104B200042E0C40ED11CCA14DB0420F1AC014A19C6
:104B30005B09DA011296159780F0628273825183C5
:104B40004083D9016D937C93E114F10471F0D70196
:104B50001396FC93EE9312978ECF22968C0F9D1F87
:104B6000F90191838083F301EFCFF0932F07E09356
:104B70002E0781CF4816590608F42C017D01D30178
:104B80009ACFCB010E94CD237C01009749F0AE0162
:104B9000B8010E94D325C8010E94692487016BCF08
:104BA00010E000E068CFFB01DC0102C001900D9233
:104BB00041505040D8F70895FB01DC018D910190E0
:104BC00080190110D9F3990B0895FB01DC010190C4
:104BD0000D920020E1F70895FB0151915523A9F0B2
:104BE000BF01DC014D9145174111E1F759F4CD01A9
:104BF0000190002049F04D9140154111C9F3FB018E
:104C00004111EFCF81E090E001970895F894FFCF34
:104C100001000030078000050004000300020001CD
:104C2000000600000000007A039A02C702C703389A
:104C300003D6022A030D0A006E616E00696E6600DB
:104C40006F766600536572766F20576169742E2EF9
:104C50002E004C65673A2000206D6F746F72313AF8
:104C60002000206D6F746F72323A2000206D6F74D7
:104C70006F72333A2000537461727475700053651B
:104C80006E64696E672064617461002323776964D0
:104C900074683A0023236865696768743A002323BF
:104CA00073746F703A007E0052656164696E673A92
:104CB00020004D6F766520666F72776172647300B5
:104CC0004D6F7665206261636B7761726473005526
:104CD00070646174652068656967687420616E64DA
:104CE0002077696474680053746F7000747275651E
:104CF0000066616C7365006C656731006C656732D6
:104D0000006C656733006C656734006C656735005F
:064D10006C65673600002F
:020000040003F7
:10E000000D9489F10D94B2F10D94B2F10D94B2F129
:10E010000D94B2F10D94B2F10D94B2F10D94B2F1F0
:10E020000D94B2F10D94B2F10D94B2F10D94B2F1E0
:10E030000D94B2F10D94B2F10D94B2F10D94B2F1D0
:10E040000D94B2F10D94B2F10D94B2F10D94B2F1C0
:10E050000D94B2F10D94B2F10D94B2F10D94B2F1B0
:10E060000D94B2F10D94B2F10D94B2F10D94B2F1A0
:10E070000D94B2F10D94B2F10D94B2F10D94B2F190
:10E080000D94B2F10D94B2F10D94B2F10D94B2F180
:10E090000D94B2F10D94B2F10D94B2F10D94B2F170
:10E0A0000D94B2F10D94B2F10D94B2F10D94B2F160
:10E0B0000D94B2F10D94B2F10D94B2F10D94B2F150
:10E0C0000D94B2F10D94B2F10D94B2F10D94B2F140
:10E0D0000D94B2F10D94B2F10D94B2F10D94B2F130
:10E0E0000D94B2F141546D656761323536300041AF
:10E0F000726475696E6F206578706C6F72657220DE
:10E1000073746B3530305632206279204D4C530099
:10E11000426F6F746C6F616465723E004875683F52
:10E1200000436F6D70696C6564206F6E203D200048
:10E130004350552054797065202020203D20005FF9
:10E140005F4156525F415243485F5F3D2000415658
:10E1500052204C696243205665723D20004743437C
:10E160002056657273696F6E203D20004350552024
:10E1700049442020202020203D20004C6F7720663D
:10E18000757365202020203D20004869676820665F
:10E190007573652020203D200045787420667573D6
:10E1A00065202020203D20004C6F636B2066757336
:10E1B000652020203D20004D617220203720323024
:10E1C000313300312E362E3800342E332E350056A2
:10E1D00023202020414444522020206F7020636F70
:10E1E00064652020202020696E73747275637469E1
:10E1F0006F6E2061646472202020496E74657272B3
:10E20000757074006E6F20766563746F7200726A49
:10E210006D702020006A6D70200057686174207056
:10E220006F72743A00506F7274206E6F7420737541
:10E2300070706F72746564004D7573742062652030
:10E2400061206C6574746572002000577269747483
:10E25000696E672045450052656164696E672045B7
:10E26000450045452065727220636E743D00504F35
:10E27000525400303D5A65726F2061646472003FF1
:10E280003D43505520737461747300403D454550C3
:10E29000524F4D207465737400423D426C696E6B41
:10E2A000204C454400453D44756D70204545505215
:10E2B0004F4D00463D44756D7020464C415348001B
:10E2C000483D48656C70004C3D4C69737420492F83
:10E2D0004F20506F72747300513D51756974005234
:10E2E0003D44756D702052414D00563D73686F7707
:10E2F00020696E7465727275707420566563746FF0
:10E30000727300593D506F727420626C696E6B00BD
:10E310002A0011241FBECFEFD1E2DEBFCDBF01E046
:10E320000CBF12E0A0E0B2E0EEE1FDEF03E00BBFB6
:10E3300002C007900D92A030B107D9F712E0A0E01B
:10E34000B2E001C01D92AE30B107E1F70F9460F367
:10E350000D948DFE01E20EBF0FEF0DBF11241FBE05
:10E360000D9460F30D9400F020E030E040ED57E0B4
:10E3700005C0FA013197F1F72F5F3F4F2817390792
:10E38000C0F308959C01260F311DC901A0E0B0E043
:10E390002F5F3F4FABBFFC018791882361F08093D3
:10E3A000C6008091C00086FFFCCF8091C0008064D1
:10E3B0008093C000EACF08958DE08093C6008091DD
:10E3C000C00086FFFCCF8091C00080648093C000B5
:10E3D0008AE08093C6008091C00086FFFCCF8091C8
:10E3E000C00080648093C00008950F94C2F10F9420
:10E3F000DCF10895FC019081992359F09093C600B7
:10E400008091C00086FFFCCF8091C0008064809323
:10E41000C0003196992379F70895282F982F929567
:10E420009F70892F805D8A3308F0895F8093C600D2
:10E430008091C00086FFFCCF8091C00080648093F3
:10E44000C000822F8F70982F905D9A3308F0995FEB
:10E450009093C6008091C00086FFFCCF8091C000E1
:10E4600080648093C00008959C01FB01853691056E
:10E470001CF46330710594F0C90164E670E00F94F8
:10E480002EFE605D7F4F6093C6008091C00086FFC6
:10E49000FCCF8091C00080648093C0002B30310598
:10E4A00014F43297B4F0C90164E670E00F942EFEC4
:10E4B0006AE070E00F942EFE605D7F4F6093C600AF
:10E4C0008091C00086FFFCCF8091C0008064809363
:10E4D000C000C9016AE070E00F942EFEC0968093E0
:10E4E000C6008091C00086FFFCCF8091C000806490
:10E4F0008093C00008951F93182F8EE692EE60E07F
:10E500000F94C2F11093C6008091C00086FFFCCF2B
:10E510008091C00080648093C0000F94DCF11F9153
:10E5200008952F923F924F925F926F927F928F92B7
:10E530009F92AF92BF92CF92DF92EF92FF920F9392
:10E540001F93DF93CF93CDB7DEB762970FB6F894E2
:10E55000DEBF0FBECDBF382E622ECA01DB015C01CB
:10E560006D01772420E2222E2E010894411C511CBB
:10E570008BC081E0A81680E0B80681E0C80680E084
:10E58000D80628F0C601AA27BB270F940DF2BB2797
:10E59000AD2D9C2D8B2D0F940DF28A2D0F940DF225
:10E5A0002092C6008091C00086FFFCCF8091C00001
:10E5B00080648093C0009DE29093C6008091C0006B
:10E5C00086FFFCCF8091C00080648093C0002092C1
:10E5D000C6008091C00086FFFCCF8091C00080649F
:10E5E0008093C00019828601750188249924A1E0D6
:10E5F0003A1651F03A1620F0B2E03B1661F409C029
:10E600000BBFF701779007C0C7010F9477FE782EF4
:10E6100002C0F7017080872D0F940DF22092C60082
:10E620008091C00086FFFCCF8091C0008064809301
:10E63000C000872D8052F401EF70F0708F3520F408
:10E64000E40DF51D708204C0E40DF51D8EE280839B
:10E650000894E11CF11C011D111D0894811C911CE2
:10E6600090E18916910409F0C2CF80E190E0A0E02A
:10E67000B0E0A80EB91ECA1EDB1E198AC2010F9493
:10E68000FAF10F94DCF16A94662009F072CF629679
:10E690000FB6F894DEBF0FBECDBFCF91DF911F91B3
:10E6A0000F91FF90EF90DF90CF90BF90AF909F9031
:10E6B0008F907F906F905F904F903F902F90089534
:10E6C0002F923F924F925F926F927F928F929F9282
:10E6D000AF92BF92CF92DF92EF92FF920F931F9370
:10E6E000DF93CF93CDB7DEB7CD53D1400FB6F894BB
:10E6F000DEBF0FBECDBF01E20EBF0FEF0DBF94B75F
:10E70000F894A89514BE80916000886180936000A1
:10E7100010926000789493FF05C0E0910002F091A0
:10E7200001021995279A2F9A8091C00082608093E8
:10E73000C00080E18093C40088E18093C1000000A4
:10E74000EE24FF24870144E0A42EB12CCC24DD2448
:10E7500024C0C5010197F1F70894E11CF11C011DCB
:10E76000111D21E2E2162EE4F20620E0020720E06D
:10E77000120718F031E0C32ED12CC801B70127ECE5
:10E780003BE140E050E00F9441FE611571058105C9
:10E79000910519F485B1805885B98091C00087FD35
:10E7A00003C0C114D104A9F2A6014F5F5F4FC25E3E
:10E7B000DE4F59834883CE51D140C25EDE4F8881FF
:10E7C0009981CE51D140019711F00D9410FEC05D9A
:10E7D000DE4F19821882C053D14060E0C15DDE4F28
:10E7E0001882CF52D14088249924C35DDE4F19820C
:10E7F0001882CD52D140C05EDE4F188219821A8233
:10E800001B82C052D140CE5CDE4F188219821A8220
:10E810001B82C253D140EE24FF2487010BBFF701B6
:10E8200007911691C45CDE4F19830883CC53D14005
:10E830000D940BFEC25EDE4F28813981CE51D1404E
:10E840002130310509F52091C600C25EDE4F1982E4
:10E850001882CE51D14022C02F5F3F4F4F4F5F4FA4
:10E86000213082E138078AE7480780E0580780F0C6
:10E87000C45CDE4FE881F981CC53D140EF5FFF4F9C
:10E8800019F0EE27FF27099420E030E040E050E047
:10E890008091C00087FFE0CF2091C600C35DDE4FAE
:10E8A00048815981CD52D1404F5F5F4FC35DDE4FEC
:10E8B00059834883CD52D140213209F063C64A3092
:10E8C000510508F05FC60894811C911C53E0851621
:10E8D000910409F059C600E010E018C081E280936D
:10E8E000C6008091C00086FFFCCF8091C00080648C
:10E8F0008093C0002F5F3F4F2931310579F70F9486
:10E90000DCF10F5F1F4F0530110519F020E030E0FA
:10E91000E5CF10920A0210920B0210920C02109294
:10E920000D02109206021092070210920802109235
:10E930000902109202021092030210920402109235
:10E9400005028FEE90EE60E00F94F5F180E191EE1C
:10E9500060E00F94C2F18091C00087FFFCCF9091DE
:10E96000C600903608F09F759032B8F09093C600BC
:10E970008091C00086FFFCCF8091C00080648093AE
:10E98000C000A0E2A093C6008091C00086FFFCCF2B
:10E990008091C00080648093C000983409F4D7C18E
:10E9A0009934B8F4923409F459C1933458F490333B
:10E9B00019F1903308F4E3C59F33A1F1903409F0C5
:10E9C000DEC5BDC0953409F470C1963409F0D7C5D1
:10E9D00098C1923509F42BC2933538F49C3409F46C
:10E9E000F5C1913509F0CBC518C2963509F445C279
:10E9F000993509F0C4C567C483E792EE62E00F94CD
:10EA0000F5F110920602109207021092080210927D
:10EA1000090210920A0210920B0210920C0210923C
:10EA20000D0213C18FE792EE62E00F94F5F18FEEC5
:10EA300090EE60E00F94F5F181E291EE60E00F94CA
:10EA4000C2F187EB91EE60E00F94F5F180E391EE77
:10EA500060E00F94C2F184EE90EE60E00F94F5F167
:10EA60008FE391EE60E00F94C2F186E090E061E008
:10EA700070E00F9434F20F94DCF18DE591EE60E0DC
:10EA80000F94C2F189EC91EE60E00F94F5F18EE401
:10EA900091EE60E00F94C2F183EC91EE60E00F9490
:10EAA000F5F18CE691EE60E00F94C2F18EE10F94E7
:10EAB0000DF288E90F940DF281E00F940DF20F949E
:10EAC000DCF18BE791EE60E00F94C2F119E0E0E039
:10EAD000F0E010935700E4918E2F0F940DF20F94F5
:10EAE000DCF18AE891EE60E00F94C2F1E3E0F0E03F
:10EAF00010935700E4918E2F0F940DF20F94DCF1D8
:10EB000089E991EE60E00F94C2F1E2E0F0E0109349
:10EB10005700E4918E2F0F940DF20F94DCF188EAE8
:10EB200091EE60E00F94C2F1E1E0F0E01093570045
:10EB30001491812F0F940DF20F94DCF107CF8BE825
:10EB400092EE62E00F94F5F18BE492EE60E00F94A8
:10EB5000F5F10F94DCF100E010E019C0C8016F2D51
:10EB60000F947FFEFF2031F489E492EE60E00F9471
:10EB7000C2F10BC0F092C6008091C00086FFFCCFAE
:10EB80008091C00080648093C0000F5F1F4FC80158
:10EB900081519F41A0E0B0E0ABBFFC01F790BAE229
:10EBA000FB1621F0E2E000301E07C1F60F94DCF105
:10EBB0000F94DCF187E592EE60E00F94F5F10F948D
:10EBC000DCF1CC24DD2400E010E01EC0C8010F946D
:10EBD00077FEF82E882331F489E492EE60E00F94FA
:10EBE000C2F10BC08093C6008091C00086FFFCCFAD
:10EBF0008091C00080648093C000FE1419F00894D6
:10EC0000C11CD11C0F5F1F4FC80181519F41A0E063
:10EC1000B0E0ABBFFC01E790FAE2EF1621F022E092
:10EC20000030120799F60F94DCF10F94DCF182E6C4
:10EC300092EE60E00F94C2F1C60161E070E00F94C3
:10EC400034F20F94DCF10F94DCF110920202109276
:10EC50000302109204021092050278CE89E992EE26
:10EC600062E00F94F5F1279A2F9A16C02F9880E052
:10EC700090E0E0EDF7E03197F1F7019684369105E9
:10EC8000C1F72F9A80E090E0E0EDF7E03197F1F7DF
:10EC9000019684369105C1F78091C00087FFE6CFC9
:10ECA0008091C00087FFFCCF64C485EA92EE62E0E9
:10ECB0000F94F5F140910202509103026091040219
:10ECC0007091050281E020E10F9491F2809102029F
:10ECD00090910302A0910402B091050280509F4FD1
:10ECE000AF4FBF4F8093020290930302A0930402A0
:10ECF000B093050280509041A040B04008F426CE69
:10ED0000A4CF83EB92EE62E00F94F5F140910602FE
:10ED100050910702609108027091090280E020E1A1
:10ED20000F9491F28091060290910702A09108023F
:10ED3000B091090280509F4FAF4FBF4F80930602A2
:10ED400090930702A0930802B0930902FFCD80ECD4
:10ED500092EE62E00F94F5F183E792EE60E00F949B
:10ED6000F5F18FE792EE60E00F94F5F18BE892EE0B
:10ED700060E00F94F5F189E992EE60E00F94F5F10F
:10ED800085EA92EE60E00F94F5F183EB92EE60E09D
:10ED90000F94F5F180EC92EE60E00F94F5F187ECC2
:10EDA00092EE60E00F94F5F188ED92EE60E00F9442
:10EDB000F5F18FED92EE60E00F94F5F18AEE92EEB0
