:100000000C9466020C9497020C9497020C9497023D
:100010000C9497020C9497020C9497020C949702FC
:100020000C9497020C94C5110C94C5110C94C51135
:100030000C9497020C9497020C9497020C949702DC
:100040000C9497020C9459120C9497020C949702FA
:100050000C9497020C9497020C9497020C947B11C9
:100060000C9497020C9445110C941B110C9497025C
:100070000C9497020C9497020C9497020C9497029C
:100080000C942B120C9497020C9497020C949702E8
:100090000C94E5100C94BB100C9497020C949702EE
:1000A0000C9497020C9497020C94FD110C949702F7
:1000B0000C9497020C9497020C9497020C94CF1115
:1000C0000C9497020C9497020C9497020C9497024C
:1000D0000C9497020C9497020C9497020C9497023C
:1000E0000C949702036EDB363D9A9999993DABAA21
:1000F000AA2A3E000000803F084AD73B3BCE016E53
:1001000084BCBFFDC12F3D6C74319ABD56833DDA6E
:100110003D00C77F11BED9E4BB4C3E916BAAAABE7D
:10012000000000803F072C7AA5BA6CC590DA3B939B
:1001300065FC8BBC53F810FD3C5692834DBD879DEA
:100140003AB63DCBC9BF5BBE73DA0FC93F05A84CB9
:10015000CDB2D44EB93836A9020C50B99186880870
:100160003CA6AAAA2ABE000000803F0664EC1B3C05
:1001700004BC163E3BE5B93CC93C37C29E5A3D66BD
:100180000498083EEA69AAAA3E000000803F07637F
:100190004236B79BD8A71A39685618AEBAAB558CF9
:1001A0001D3CB7CC5763BD6DEDFD753EF617723142
:1001B000BF000000803F08000000BE922449123EAC
:1001C000ABAAAA2ABECDCCCC4C3E00000080BEAB70
:1001D000AAAAAA3E00000000BF000000803F000065
:1001E000000000084178D3BB4387D1133D190E3C72
:1001F000C3BD4282AD2B3E68EC8276BED98FE1A9A9
:100200003E4C80EFFFBE01C4FF7F3F0000000000B6
:100210000C9438030C9472040C94C7030C94B11220
:100220000C9438040C9447040C949A020C944004E7
:100230000C94D6020C9473040C94C7020C946504BD
:100240000C9477040C946D040C9444040C943204C4
:100250000C945F040C944D040C942A030C943C04FD
:100260000C9469040C947A030C9457040C94510474
:100270000C945B044E414E494E495459494E46CD6B
:10028000CCCC3D0AD7233C17B7D13877CC2B32954D
:1002900095E6241FB14F0A000020410000C842002B
:1002A000401C4620BCBE4CCA1B0E5AAEC59D7400F5
:1002B000407A10F35A00A0724E18090010A5D4E835
:1002C0000000E87648170000E40B54020000CA9AC8
:1002D0003B000000E1F5050000809698000000401A
:1002E000420F000000A0860100000010270000005F
:1002F00000E803000000006400000000000A0000A5
:100300000000000100000000002C76D888DC674F58
:100310000823DFC1DFAE59E1B1B796E5E3E453C688
:100320003AE651997696E8E6C28426EB898C9B6280
:10033000ED407C6FFCEFBC9C9F40F2BAA56FA5F42A
:1003400090055A2AF75C936B6CF9676DC11BFCE052
:10035000E40D47FEF520E6B500D0ED902E030094A5
:100360003577050080841E080000204E0A0000003A
:10037000C80C333333330F986E12831141EF8D2144
:1003800014893BE65516CFFEE6DB18D1844B381BAB
:10039000F77C1D901DA4BBE424203284725E228170
:1003A00000C9F124ECA1E53D27000021002400272D
:1003B000002A002D00300033000101000004010775
:1003C000010A0100002200250028002B002E003128
:1003D00000340002010000050108010B01000020AB
:1003E000002300260029002C002F0032000001000D
:1003F00000030106010901050505050705080808B0
:1004000008020202020A0A080804040404010101A5
:1004100001010101010303030303030303040707AD
:10042000070C0C0C0C0C0C0C0C020202020606064B
:1004300006060606060B0B0B0B0B0B0B0B01021033
:1004400020200808102040102040800201020108EE
:10045000040201010204081020408080402010089E
:1004600004020180040201804020100804020108F7
:100470000402010102040810204080010204081057
:1004800020408000000A0B02090C0D0E080703042F
:10049000010000000000000000000000000000005B
:1004A000000000000000000000000000000000123A
:1004B000111000000000000000000000000000001B
:1004C00000000000000000000000B11211241FBE57
:1004D000CFEFD1E2DEBFCDBF00E00CBF13E0A0E064
:1004E000B2E0E8EDFBE400E00BBF02C007900D9224
:1004F000A630B107D9F727E0A6E0B3E001C01D920E
:10050000AD32B207E1F712E0C6E6D2E000E006C085
:1005100021970109802FFE010E949523C536D1073E
:1005200080E00807A9F70E941B130C94EA250C949D
:1005300000000895AF92BF92CF92DF92EF92FF92A8
:100540000F931F93CF93DF936C017B018B01040FFB
:10055000151FEB015E01AE18BF08C017D10759F097
:100560006991D601ED91FC910190F081E02DC601D9
:100570001995892B79F7C501DF91CF911F910F91C3
:10058000FF90EF90DF90CF90BF90AF900895FC0167
:10059000538D448D252F30E0842F90E0821B930BE8
:1005A000541710F0CF96089501970895FC01918D8E
:1005B000828D981761F0A28DAE0FBF2FB11D5D9691
:1005C0008C91928D9F5F9F73928F90E008958FEF33
:1005D0009FEF08952FB7F8948091BB039091BC03CF
:1005E000A091BD03B091BE032FBF8093C70390932A
:1005F000C803A093C903B093CA038FEB93E00E9492
:10060000D60297FF26C02FB7F8948091BB03909134
:10061000BC03A091BD03B091BE032FBF4091C7039F
:100620005091C8036091C9037091CA03841B950B54
:10063000A60BB70B4091C3035091C4036091C5034F
:100640007091C60384179507A607B707B0F28FEF1E
:100650009FEF0895FC01918D828D981731F0828D66
:10066000E80FF11D858D90E008958FEF9FEF0895BD
:10067000FC01918D228D892F90E0805C9F4F821B21
:1006800091098F73992708958FEB93E00E943803A7
:1006900021E0892B09F420E0822F08958CE594E075
:1006A0000E94380321E0892B09F420E0822F08956D
:1006B000FC01A48DA80FB92FB11DA35ABF4F2C91D7
:1006C000848D90E001968F739927848FA689B789CE
:1006D0002C93A089B1898C91837080648C93938DC5
:1006E000848D981306C00288F389E02D80818F7D68
:1006F00080830895EF92FF920F931F93CF93DF9320
:10070000EC0181E0888F9B8D8C8D98131AC0E8894D
:10071000F989808185FF15C09FB7F894EE89FF891C
:100720006083E889F98980818370806480839FBFBA
:1007300081E090E0DF91CF911F910F91FF90EF90BA
:100740000895F62E0B8D10E00F5F1F4F0F731127CA
:10075000E02E8C8D8E110CC00FB607FCFACFE88905
:10076000F989808185FFF5CFCE010E945803F1CF32
:10077000EB8DEC0FFD2FF11DE35AFF4FF0829FB779
:10078000F8940B8FEA89FB8980818062CFCFCF9369
:10079000DF93EC01888D8823B9F0AA89BB89E889A9
:1007A000F9898C9185FD03C0808186FD0DC00FB64F
:1007B00007FCF7CF8C9185FFF2CF808185FFEDCFCD
:1007C000CE010E945803E9CFDF91CF91089580E0D8
:1007D00090E0892B29F00E944E0381110E940000B5
:1007E00080E090E0892B29F00E94440381110E944F
:1007F000000080E090E0892B49F080E090E0892BB8
:1008000029F00E94000081110E94000080E090E029
:10081000892B49F080E090E0892B29F00E940000AC
:1008200081110C94000008958150823108F05AC063
:10083000E82FF0E08827E05EFB4F8F4F0C94952364
:1008400040044404320438043C04720447044D0458
:10085000510457045B045F046504690472046D0469
:1008600073047704809180008F77809380000895CF
:10087000809180008F7DF9CF80918000877FF5CFB8
:1008800084B58F7784BD089584B58F7DFBCF80912B
:10089000B0008F778093B00008958091B0008F7D75
:1008A000F9CF809190008F77809390000895809188
:1008B00090008F7DF9CF80919000877FF5CF809158
:1008C000A0008F778093A00008958091A0008F7D75
:1008D000F9CF8091A000877FF5CF809120018F779D
:1008E000809320010895809120018F7DF9CF809120
:1008F0002001877FF5CFCF93DF93282F30E0F901D8
:10090000ED57FB4F8491F901E35CFB4FD491F90162
:10091000E950FC4FC491CC23A1F081110E94140432
:10092000EC2FF0E0EE0FFF1FE352FC4FA591B491C6
:10093000EC91ED2381E090E009F480E0DF91CF912C
:10094000089580E090E0FACF1F93CF93DF93282F94
:1009500030E0F901ED57FB4F8491F901E35CFB4F67
:10096000D491F901E950FC4FC491CC23A9F0162F82
:1009700081110E941404EC2FF0E0EE0FFF1FED53E5
:10098000FC4FA591B4918FB7F894EC91111108C068
:10099000D095DE23DC938FBFDF91CF911F91089517
:1009A000DE2BF8CF3FB7F89480919F039091A0037E
:1009B000A091A103B091A20326B5A89B05C02F3F2B
:1009C00019F00196A11DB11D3FBFBA2FA92F982F75
:1009D0008827BC01CD01620F711D811D911D42E070
:1009E000660F771F881F991F4A95D1F708958F9238
:1009F0009F92AF92BF92CF92DF92EF92FF92FC0153
:100A0000828158E5C52E52E0D52EC81AD10887FD3F
:100A1000D394CC0CDD1CCC0CDD1C0D2C000CEE0892
:100A2000FF08818178E8872E912C881A910887FD2C
:100A30009394880C991C880C991C092C000CAA080A
:100A4000BB0880818F3FD1F190E0FC01EE0FFF1FCA
:100A5000E80FF91FE55FFC4F8181928133E0880F39
:100A6000991F3A95E1F7B0E0A0E044E0B595A7956D
:100A7000979587954A95D1F702969C012F5F3F4F36
:100A8000032E000C440B550B281939094A095B0940
:100A9000A4EBB0E00E943C1FA70196012819390978
:100AA0004A095B090E941D1FC901FF90EF90DF906A
:100AB000CF90BF90AF909F908F90089590E080E08E
:100AC000DCCFCF92DF92EF92FF92CF93DF93EC01D6
:100AD000603282E07807CCF5653B710514F064EB79
:100AE00070E0898128E830E0281B310987FD3395C3
:100AF000220F331F220F331F6901330FEE08FF0847
:100B00008A8128E532E0281B310987FD3395220FC1
:100B1000331F220F331F032E000C440B550B2C19CF
:100B20003D094E095F09DB0177FF02C0B0E0A0E09C
:100B30000E94471F24EB30E040E050E00E941D1F60
:100B4000C20ED31EE41EF51EB601E881E03370F537
:100B5000298188E890E0821B910927FD9395880FF1
:100B6000991F880F991F681779077CF02A8188E5FB
:100B700092E0821B910927FD9395880F991F880F9A
:100B8000991F681779070CF4CB010297880F991FFA
:100B90004FB7F8942E2F30E0F901EE0FFF1FE20F50
:100BA000F31FE55FFC4F928381834FBFDF91CF91AD
:100BB000FF90EF90DF90CF900895CF93DF93DC010B
:100BC0008C91803308F06DC0CB01FB01E35CFB4FDF
:100BD000249189509C4FFC018491882399F090E0E6
:100BE000880F991FFC01E755FC4FC591D491FC017A
:100BF000ED53FC4F859194918FB7F894E881E22BE7
:100C0000E8838FBF8C91282F30E0F901EE0FFF1F92
:100C1000E20FF31FE55FFC4F962F9F736081607CAE
:100C2000692B608311961C92119712961C92129751
:100C30002CE0622F0E947523829FB001112430E0C6
:100C400020E0AB01420F531FFA01EE0FFF1FE40F2C
:100C5000F51FE55FFC4F908196FD16C02F5F3F4F5B
:100C60002C30310571F7813001F51092800082E05F
:100C7000809381001092850010928400B19A809137
:100C80006F00826080936F00EC918E2F90E0FC01EA
:100C9000EE0FFF1FE80FF91FE55FFC4F80818064B6
:100CA00080838C91DF91CF910895823061F410920E
:100CB000900080939100109295001092940088BB50
:100CC00080937100E1CF833069F41092A00082E03C
:100CD0008093A1001092A5001092A40089BB80937C
:100CE0007200D2CF8111D0CF1092200182E0809388
:100CF000210110922501109224018ABB8093730078
:100D0000C3CFAF92BF92CF92DF92EF92FF920F9339
:100D10001F93CF93DF936B017A01EC01CA5FDC4F25
:100D200028813CE0389F8001399F100D1124A0904C
:100D30000A03B12C27FF1FC0FB011182108288819A
:100D40008F5F888388819801280F311D87FD3A9530
:100D5000F6012A153B051CF488818C30C4F1808192
:100D60009181049680349C4908F473C0F601808117
:100D70009181049670C088819801280F311D87FDEC
:100D80003A952A153B05DCF68881A801480F511DCC
:100D900087FD5A95FA01EE0FFF1FE40FF51FE55F7F
:100DA000FC4F808186FFCBCF8881F801E80FF11DD1
:100DB00087FDFA95CF01EE0FFF1FE80FF91FE55FE2
:100DC000FC4F808160E08F730E94A404B8CF8081C3
:100DD00091812881A801420F511D27FD5A959A0142
:100DE000FA01EE0FFF1FE20FF31FE55FFC4F2181B9
:100DF0003281820F931FF70191838083888198014C
:100E0000280F311D87FD3A95F901EE0FFF1FE20F04
:100E1000F31FE55FFC4F808186FF22C08881080FA9
:100E2000111D87FD1A95F801EE0FFF1FE00FF11F4E
:100E3000E55FFC4F808161E08F73DF91CF911F915F
:100E40000F91FF90EF90DF90CF90BF90AF900C94F8
:100E5000A40480E49CE9F701918380838FEF888369
:100E6000DF91CF911F910F91FF90EF90DF90CF9086
:100E7000BF90AF900895CF93DF93EC0120E030E076
:100E800044E353E4688179818A819B810E945C1EDE
:100E90002BED3FE049E450E40E944D2068837983C4
:100EA0008A839B83DF91CF91089583309105E1F090
:100EB00034F481309105A9F0029751F008958530FE
:100EC000910561F044F00697C9F789EF94E0089521
:100ED0008DE696E0089583EB95E0089586E595E02C
:100EE00008958AEC96E0089580E196E00895FB016C
:100EF0004230510541F04330510569F02BE041305B
:100F0000510519F008952BE03B96DC0101900D92FC
:100F10002A95E1F7F7CF2BE07696F7CFFC01019009
:100F20000020E9F73197AF01481B590BBC018CE554
:100F300094E00C949A028F929F92AF92BF920F937B
:100F40001F93CF93DF93CDB7DEB7A1970FB6F89479
:100F5000DEBF0FBECDBF19A2423008F44AE08E01B9
:100F60000F5D1F4F842E912CB12CA12CA501940153
:100F70000E944F1FE62FB901CA01EA30F4F4E05D88
:100F8000D801EE938D01232B242B252B79F790E0AC
:100F900080E0109719F0CD010E948E07A1960FB640
:100FA000F894DEBF0FBECDBFDF91CF911F910F919F
:100FB000BF90AF909F908F900895E95CE1CF0C9423
:100FC0008E07CF93DF930E948E07EC0185E292E0BB
:100FD0000E948E078C0F9D1FDF91CF9108954F9235
:100FE0005F926F927F928F929F92AF92BF92CF92B9
:100FF000DF92EF92FF920F931F93CF936B017C01CF
:10100000742EAC019B010E946322882399F088E230
:1010100092E0CF911F910F91FF90EF90DF90CF90D2
:10102000BF90AF909F908F907F906F905F904F9008
:101030000C948E0746015701E894B7F82FEF3FEF65
:101040004FE75FE7C501B4010E94632281110DC023
:101050002FEF3FEF4FE75FE7C501B4010E94F61D98
:1010600018161CF48CE292E0D4CF2FEF3FEF4FE73D
:101070005FE4C701B6010E948F2118161CF480E3BB
:1010800092E0C7CF2FEF3FEF4FE75FECC701B6010C
:101090000E94F61D87FDF3CF20E030E0A901C701D3
:1010A000B6010E94F61D10E000E087FF0AC06DE265
:1010B0008CE594E00E947A038C01F7FAF094F7F83B
:1010C000F094C0E060E070E080E09FE37C1641F0C7
:1010D00020E030E040E251E40E944D20CF5FF6CFA7
:1010E000A70196010E94921F2B013C010E94C6207D
:1010F0004B015C014AE00E949B077C01E00EF11E5F
:10110000CC23C1F1C501B4010E94FB1D9B01AC01C0
:10111000C301B2010E94911F4B015C016EE28CE59C
:1011200094E00E947A03E80EF91EC15018F120E005
:1011300030E040E251E4C501B4010E945C1E2B0185
:101140003C010E94C6204B01B12CA12C4AE0C501F4
:10115000B4010E949B07E80EF91EC501B4010E946C
:10116000FB1D9B01AC01C301B2010E94911F4B0109
:101170005C01DBCFC701CF911F910F91FF90EF90E2
:10118000DF90CF90BF90AF909F908F907F906F90A7
:101190005F904F900895CF93DF9342E00E94EF0756
:1011A000EC0185E292E00E948E078C0F9D1FDF917B
:1011B000CF910895FC0180819181009711F00C94EA
:1011C000ED1960E070E0CB010895FC0124813581C8
:1011D000232B39F421E0FB018081882349F020E0B2
:1011E00007C0808191810E94C02521E0892BB9F739
:1011F000822F08950F931F93CF93DF938C01EB0100
:10120000FC01808191810097E1F06881798161150D
:101210007105A9F0428153812C813D81421753070A
:1012200070F00E94C9258C819D81F801958384838B
:101230001D821C82DF91CF911F910F9108950E9412
:101240004D2488819981F801918380838A819B81D3
:10125000938382838C819D819583848319821882F4
:101260001B821A82E5CFCF93DF93EC0188819981AD
:10127000009711F00E944D24198218821D821C8251
:101280001B821A82DF91CF910895FC0180819181A8
:10129000009711F00C944D2408950F931F93CF9352
:1012A000DF93EC0188819981009759F02A813B8175
:1012B0002617370730F081E0DF91CF911F910F9112
:1012C00008958B016F5F7F4F0E94D624009759F0DD
:1012D000998388831B830A832C813D81232B59F7B3
:1012E000FC011082E8CF80E0E7CFEF92FF920F93EE
:1012F0001F93CF93DF936115710541F480E0DF9177
:10130000CF911F910F91FF90EF90089541155105D6
:10131000B1F07B01EC010C811D81040F151FB80198
:101320000E944D09882351F3288139818C819D8148
:10133000B701820F931F0E94C9251D830C8381E092
:10134000DECFFB0101900020E9F73197AF01461B8A
:10135000570B0C947509EF92FF920F931F93CF9345
:10136000DF93CDB7DEB764970FB6F894DEBF0FBE3C
:10137000CDBF7C01CB01BA018E010F5F1F4F22E070
:1013800044E00E94CF19FC0101900020E9F7319759
:10139000AF01481B590BBC01C7010E947509649637
:1013A0000FB6F894DEBF0FBECDBFDF91CF911F9176
:1013B0000F91FF90EF900895EF92FF920F931F937C
:1013C000CF93DF93EC017B018A01BA010E944D09A2
:1013D00081110BC0CE010E943309CE01DF91CF9164
:1013E0001F910F91FF90EF9008951D830C83B7011B
:1013F000888199810E94C925F0CFFC011182108259
:10140000138212821582148250E040E067E272E09B
:101410000C94DC09FB0101900020E9F73197AF0142
:10142000461B570B0C94DC09AF92BF92CF92DF9210
:10143000EF92FF920F931F93CF93DF936C015B01A9
:101440007A0189012417350720F48F2D7901042FA3
:10145000182FC6010E94FD09D5011496CD91DC918B
:10146000EC16FD06E0F40C171D0708F4E801D501A1
:10147000ED91FC911197EC0FFD1F108110826D9181
:101480007C916E0D7F1DC60161157105A1F00E9452
:101490000A0AF50180819181C80FD91F1883C601FE
:1014A000DF91CF911F910F91FF90EF90DF90CF9040
:1014B000BF90AF9008950E943309EBCFCF93DF9395
:1014C000EC01FB018617970749F060817181611576
:1014D000710541F0448155810E94DC09CE01DF9104
:1014E000CF9108950E943309F9CFCF93DF93EC0198
:1014F00057FD1BC0FB01868D978D48175907ACF42B
:10150000198218821B821A821D821C8226E0249F67
:10151000C001259F900D1124680F791FCE010E94F4
:101520005E0ACE01DF91CF910895CE010E94FD09A0
:10153000F8CF6F927F928F929F92AF92BF92CF928D
:10154000DF92EF92FF920F931F93CF93DF93CDB76C
:10155000DEB768970FB6F894DEBF0FBECDBF8C0123
:101560007B01B42E69013C014C018EE1880E911C77
:10157000C3010E94FD09E6E06E0E711C86149704FB
:10158000B9F7F801178E168E1A8219821C821B82F7
:101590001E821D82B701CE0101960E945E0A49811A
:1015A0005A816D817E8130E020E090E080E062171A
:1015B000730789F0FA01E20FF31F4115510521F479
:1015C00010929D03EDE9F3E0E081BE1201C00196A7
:1015D0002F5F3F4FECCF0196F801978F868FCE019A
:1015E00001960E944509F801868D978D82309105FC
:1015F000ECF481E090E0978F868FB701C8010E94DC
:101600005E0A68960FB6F894DEBF0FBECDBFDF91BD
:10161000CF911F910F91FF90EF90DF90CF90BF90EF
:10162000AF909F908F907F906F900895C816D906C5
:1016300010F4D78EC68EF801868D978D069720F010
:1016400085E090E0978F868F1C8A1B8A1E8A1D8AF0
:10165000188E1F8AB9821A82BE016F5F7F4FCE013A
:1016600043960E940A0ACE010D960E94FD09188633
:101670001F821A8619861C861B86B701CE01079623
:101680000E945E0AD12CC12C86E0882E8B859C8519
:10169000892B09F4B0C0EF80F8846B897C89C7017D
:1016A0000E94D025009709F499C08E199F0997FDD3
:1016B00095C0F801868D978D0197C816D9060CF054
:1016C0008DC0F12CE12C9E2CAF2C8B859C85E816CF
:1016D000F906E0F6FFEFEF1AFF0A9701492D5A2DA0
:1016E000BE01695F7F4FCE0101960E94140A2D81D1
:1016F0003E818F89988D2817390711F589819A8144
:101700006B897C89009759F06115710509F060C0FB
:10171000232B09F460C0FC01808190E00DC06115AD
:10172000710509F458C0232B09F455C0FB018081D1
:1017300090E0919581959109BB24B394892B09F090
:10174000B12CCE0101960E944509BB2009F4BBCF04
:10175000292D3A2D50E040E0BE01695F7F4FCE0158
:1017600001960E94140ABE016F5F7F4FCE010D9655
:101770000E94FA08CE0101960E9445092B853C85FE
:10178000A701BE01695F7F4FCE0101960E94140A36
:10179000BE016F5F7F4FCE0107960E94FA08CE010F
:1017A00001960E94450989899A89892B09F46ECF8F
:1017B0008C9CC0018D9C900D1124BE01635F7F4FF6
:1017C000800F911F0E945E0AFFEFCF1ADF0A5ECFE3
:1017D0000E94C025B1CFBB24B394B3CF26E02C9D8B
:1017E000C0012D9D900D1124BE01695F7F4F800FB8
:1017F000911F0E945E0ACE0107960E944509CE0104
:101800000D960E944509CE0143960E944509F9CEE6
:101810008F929F92AF92BF92CF92DF92EF92FF9200
:10182000CF93DF93EC0170E090E080E00E94FB1D1D
:101830009B01AC0160E070E080E89FEB0E949C217E
:101840006B017C0120E030E044EB52E40E945C1E1E
:101850004B015C01AC019B016B817C818D819E8180
:101860000E94921F6B837C838D839E8386E0CD369E
:10187000D80741F185E0C33BD80721F184E0C93F97
:10188000D80701F1A50194016E857F858889998922
:101890000E94921F6E877F87888B998B20E030E0B3
:1018A00044E353E4C701B6010E945C1E9B01AC01F6
:1018B000698D7A8D8B8D9C8D0E94921F698F7A8F96
:1018C0008B8F9C8FDF91CF91FF90EF90DF90CF9027
:1018D000BF90AF909F908F9008952F923F924F921C
:1018E0005F926F927F928F929F92AF92BF92CF92B0
:1018F000DF92FF920F931F93CF93DF93CDB7DEB7A5
:1019000066970FB6F894DEBF0FBECDBF6C0184E3BF
:1019100092E00E94E10722242394312C01E010E0A0
:10192000F12CC114D10409F058C027E0221631046B
:101930001CF4FF2009F485C00E94D2044B015C0115
:1019400084E6482E512C612C712C0E94D204681917
:1019500079098A099B09683E734081059105A8F3BE
:1019600021E0421A51086108710888EE880E83E070
:10197000981EA11CB11C411451046104710429F783
:10198000F110CECFC114D10409F094C001E010E0F1
:10199000C8010E94550761E00E94080C0F5F1F4FAD
:1019A00007301105A9F766960FB6F894DEBF0FBE93
:1019B000CDBFDF91CF911F910F91FF90DF90CF901E
:1019C000BF90AF909F908F907F906F905F904F905F
:1019D0003F902F900895FF24F394043011050CF0EC
:1019E000ABCFF110A9CFC6010E9455073C01A80159
:1019F000BC01CE010C960E9477078F849888A98835
:101A0000BA88A801B301CE0101960E947707CE01E2
:101A100001960E94F704BC01990F880B990B0E9454
:101A2000FD1D9B01AC01C501B4010E94911F0E94E4
:101A3000BF20161617067CF20F5F1F4FCECFFF2474
:101A4000F3940430110574F5F1106FCFC1010E94B9
:101A500055073C01A801BC01CE010C960E947707F6
:101A60008F849888A988BA88A801B301CE0101960D
:101A70000E947707CE0101960E94F704BC01990FDE
:101A8000880B990B0E94FD1D9B01AC01C501B4019F
:101A90000E94911F0E94BF201616170684F20F5F46
:101AA0001F4FCFCFF11041CF8FEF281A380A01E036
:101AB00010E03BCFC6010E94550761E00E94080C70
:101AC00072CFCF92DF92EF92FF92CF93DF93EC0130
:101AD0006B0103960E943B07CE010E960E943B07C6
:101AE000CE0149960E943B0760E0CE010E94080C9F
:101AF0006B817C818D819E810E94BF20CE010E94DE
:101B000061056E857F85888999890E94BF20CE01F5
:101B10000B960E946105698D7A8D8B8D9C8D0E943C
:101B2000BF20CE0146960E94610582E492E00E94A9
:101B3000DF070D2C000CEE08FF084AE0C701B601D4
:101B4000F7FE0DC06DE28CE594E00E947A036627F3
:101B50007727CB016C197D098E099F094AE00E9405
:101B60009B0788E492E00E94DF076B817C818D8176
:101B70009E8142E00E94EF0782E592E00E94DF072B
:101B80006E857F858889998942E00E94EF078CE500
:101B900092E00E94DF07698D7A8D8B8D9C8DDF919D
:101BA000CF91FF90EF90DF90CF900C94CB084F92A5
:101BB0005F926F927F928F929F92AF92BF92CF92DD
:101BC000DF92EF92FF92FC016081718182819381AB
:101BD00084809580A680B780C084D184E284F38419
:101BE0009B01AC010E945C1E2B013C01A5019401EC
:101BF000C501B4010E945C1E9B01AC01C301B2018E
:101C00000E94921F4B015C01A7019601C701B6011A
:101C10000E945C1E9B01AC01C501B4010E94921F91
:101C2000FF90EF90DF90CF90BF90AF909F908F90FC
:101C30007F906F905F904F900C94FA214F925F923B
:101C40006F927F928F929F92AF92BF92CF92DF92CC
:101C5000EF92FF920F931F93CF93DF93CDB7DEB731
:101C60006C970FB6F894DEBF0FBECDBF9A878987F9
:101C70000E9455078C0189859A850197049750F039
:101C800089859A850597029768F480E090E0A0E83E
:101C9000BFE304C080E090E0A0E8BFEB898F9A8F9B
:101CA000AB8FBC8F2BED3FE049E450E4D801139695
:101CB0006D917D918D919C9116970E945C1E20E004
:101CC00030E044E353E40E944D204B015C01F801F5
:101CD00083829482A582B68281A192A1A3A1B4A19C
:101CE00089839A83AB83BC8320E030E0A901BC01E7
:101CF000CD010E948F2118164CF089819A81AB8109
:101D0000BC81B05889839A83AB83BC83F801EB5BB9
:101D1000FF4F408051806280738020E030E0A90155
:101D2000C301B2010E948F21A301920118160CF089
:101D3000505869817A818B819C810E94911F6B012F
:101D40007C01D8019D96CD92DD92ED92FC92D097C8
:101D5000F801E35BFF4F80819181A281B3818D8780
:101D60009E87AF87B88BD80199962D913D914D9163
:101D70005C919C976D857E858F8598890E94921FC6
:101D80006D837E838F839887F80165AB76AB87ABD5
:101D900090AFC501B4010E943E229B01AC01F80145
:101DA000E75BFF4F80819181A281B381898B9A8B00
:101DB000AB8BBC8BC701B6010E945C1E29893A8996
:101DC0004B895C890E94911F6D8B7E8B8F8B988FC6
:101DD000D80195966D937D938D939C939897E98503
:101DE000FA85BF01FF0F880B990B0E94FD1D9B0117
:101DF000AC0160E070E080E89FEB0E949C21698765
:101E00007A878B879C87C501B4010E9448206B01AB
:101E10007C0120E030E046E052E469857A858B85DC
:101E20009C850E945C1EA70196010E945C1EA30176
:101E300092010E94921F6B017C01F801EF5AFF4F43
:101E4000C082D182E282F382298D3A8D4B8D5C8DE6
:101E500060E070E080E89FEB0E949C212B013C0138
:101E6000C501B4010E94EC214B015C0120E030E08F
:101E700046E052E4C301B2010E945C1EA501940138
:101E80000E945C1E29893A894B895C890E94921FB5
:101E90004B015C01F801EB5AFF4F80829182A282D4
:101EA000B38234968D859E85AF85B8898083918372
:101EB000A283B38320E030E0A901C701B6010E94EC
:101EC0008F21181624F0F7FAF094F7F8F094A70190
:101ED000960169817A818B819C810E94911F6B019F
:101EE0007C01D801D996CD92DD92ED92FC92DC97DF
:101EF000A50194016D897E898F89988D0E94921F1A
:101F00004B015C01F801FD9680829182A282B3822E
:101F100034968D819E81AF81B88580839183A28321
:101F2000B383A7019601C701B6010E945C1E6B0135
:101F30007C01A5019401C501B4010E945C1E9B01B6
:101F4000AC01C701B6010E94921F0E94FA219B01B9
:101F5000AC016D817E818F8198850E944D200E9409
:101F600019204B015C012D813E814F815885CA01AA
:101F7000B9010E94911F6B017C01C8018D960E94DE
:101F8000D70D9B01AC01C701B6010E944D200E94F4
:101F9000FE1F69837A838B839C83D801D996BE8385
:101FA000AD83CD010E94D70D6B017C01AC019B017B
:101FB0000E945C1E20E034EA4EE455E40E94921F29
:101FC00020E034E847E456E40E94911F2B013C01D5
:101FD00020E030E046EE52E4C701B6010E945C1EEC
:101FE0009B01AC01C301B2010E944D200E94801FE1
:101FF0006B017C0129813A814B815C81C501B4016F
:102000000E94921F9B01AC01C701B6010E94911F63
:1020100029853A854B855C850E945C1EF8016687A0
:102020007787808B918B8D819E810E94D70D9B013C
:10203000AC010E945C1E9B01AC0160E07DE28BE77D
:1020400096E40E94911F20E03CE04BE456E40E949D
:102050004D200E94801F9B01AC016BED7FE089E465
:1020600090E40E94911F29853A854B855C850E94EA
:102070005C1ED80159966D937D938D939C935C97CC
:102080006C960FB6F894DEBF0FBECDBFDF91CF9137
:102090001F910F91FF90EF90DF90CF90BF90AF9086
:1020A0009F908F907F906F905F904F9008958F9248
:1020B0009F92AF92BF92EF92FF920F931F93CF9395
:1020C000DF937C01B62E0E9455078C01C091A303BB
:1020D000D091A403CF3FDC0791F4F801218532852C
:1020E00037FF03C0319521953109F801C781D085AB
:1020F000D7FF03C0D195C195D109C20FD31F6B2D56
:1021000070E090E080E00E94FB1D9B01AC0160E06C
:1021100070E080E89FEB0E949C214B015C01609184
:10212000AF037091B003CE010E948123072E000CF3
:10213000880B990B0E94FD1DA50194010E945C1E55
:102140009B01AC01F80163817481858196810E94B5
:10215000921FF8016383748385839683C701DF919F
:10216000CF911F910F91FF90EF90BF90AF909F90F4
:102170008F900C941E0E1F920F920FB60F92112487
:102180000BB60F922F933F934F935F936F937F9371
:102190008F939F93AF93BF93EF93FF938FEB93E056
:1021A0000E945803FF91EF91BF91AF919F918F9142
:1021B0007F916F915F914F913F912F910F900BBE47
:1021C0000F900FBE0F901F9018951F920F920FB691
:1021D0000F9211240BB60F922F938F939F93EF932F
:1021E000FF93E091CF03F091D0038081E091D5037C
:1021F000F091D60382FD1DC090818091D8038F5F3E
:102200008F732091D903821741F0E091D803F0E059
:10221000E154FC4F958F8093D803FF91EF919F91EC
:102220008F912F910F900BBE0F900FBE0F901F90AC
:1022300018958081F2CF1F920F920FB60F92112442
:102240000BB60F922F933F934F935F936F937F93B0
:102250008F939F93AF93BF93EF93FF938CE594E09D
:102260000E945803FF91EF91BF91AF919F918F9181
:102270007F916F915F914F913F912F910F900BBE86
:102280000F900FBE0F901F9018951F920F920FB6D0
:102290000F9211240BB60F922F938F939F93EF936E
:1022A000FF93E0916C04F0916D048081E0917204E1
:1022B000F091730482FD1DC09081809175048F5F41
:1022C0008F7320917604821741F0E0917504F0E05D
:1022D000E45AFB4F958F80937504FF91EF919F9186
:1022E0008F912F910F900BBE0F900FBE0F901F90EC
:1022F00018958081F2CF1F920F920FB60F92112482
:102300002F933F938F939F93AF93BF938091BB0382
:102310009091BC03A091BD03B091BE0330919E0388
:1023200023E0230F2D3758F50196A11DB11D2093F1
:102330009E038093BB039093BC03A093BD03B09313
:10234000BE0380919F039091A003A091A103B0913F
:10235000A2030196A11DB11D80939F039093A0033A
:10236000A093A103B093A203BF91AF919F918F91CE
:102370003F912F910F900FBE0F901F90189526E858
:10238000230F0296A11DB11DD2CF1F920F920FB63F
:102390000F9211240F900FBE0F901F9018951F924F
:1023A0000F920FB60F9211240BB60F922F933F93FB
:1023B0004F935F936F937F938F939F93AF93BF934D
:1023C000EF93FF9348E251E064E271E090E080E037
:1023D0000E948106FF91EF91BF91AF919F918F91E4
:1023E0007F916F915F914F913F912F910F900BBE15
:1023F0000F900FBE0F901F9018951F920F920FB65F
:102400000F9211240BB60F922F933F934F935F932C
:102410006F937F938F939F93AF93BF93EF93FF93AC
:1024200048EA50E064EA70E083E090E00E948106B0
:10243000FF91EF91BF91AF919F918F917F916F919C
:102440005F914F913F912F910F900BBE0F900FBE58
:102450000F901F9018951F920F920FB60F92112494
:102460000BB60F922F933F934F935F936F937F938E
:102470008F939F93AF93BF93EF93FF9348E950E0FF
:1024800064E970E082E090E00E948106FF91EF91A4
:10249000BF91AF919F918F917F916F915F914F917C
:1024A0003F912F910F900BBE0F900FBE0F901F907A
:1024B00018951F920F920FB60F9211240BB60F9220
:1024C0002F933F934F935F936F937F938F939F933C
:1024D000AF93BF93EF93FF9348E850E064E870E058
:1024E00081E090E00E948106FF91EF91BF91AF9152
:1024F0009F918F917F916F915F914F913F912F911C
:102500000F900BBE0F900FBE0F901F901895FC01FF
:1025100090910A03903398F481E0890F80930A0325
:102520009083892F90E0FC01EE0FFF1FE80FF91F49
:10253000E55FFC4F88EB9BE09283818308958FEFEA
:1025400080830895CF93DF93EC010E948712CE0120
:102550000B960E948712CE014696DF91CF910C9484
:102560008712EFEBF3E01382128248EE53E060E053
:1025700070E0448355836683778387E192E091839B
:1025800080832DEC30E0358724872CEC30E03787D2
:10259000268728EC30E0318B208B29EC30E0338B20
:1025A000228B2AEC30E0358B248B2EEC30E0378BFD
:1025B000268B118E128E138E148EECE5F4E01382AE
:1025C000128244835583668377839183808385EC6D
:1025D00090E09587848784EC90E09787868780ECED
:1025E00090E0918B808B81EC90E0938B828B82ECDE
:1025F00090E0958B848B86EC90E0978B868B118E88
:10260000128E138E148E8AEC96E00E94A2128DE632
:1026100096E00E94A21280E196E00E94A21283EB53
:1026200095E00E94A21286E595E00E94A21289EF31
:1026300094E00C94A212CF93DF93CDB7DEB76C97E2
:102640000FB6F894DEBF0FBECDBF789484B582601C
:1026500084BD84B5816084BD85B5826085BD85B546
:10266000816085BD80916E00816080936E001092C4
:10267000810080918100826080938100809181003F
:1026800081608093810080918000816080938000D0
:102690008091B10084608093B1008091B00081602E
:1026A0008093B0008091910082608093910080912E
:1026B000910081608093910080919000816080936F
:1026C00090008091A10082608093A1008091A10080
:1026D00081608093A10080EA90E02091A0002160B9
:1026E0002093A000209121012260209321012091BC
:1026F000210121602093210120912001216020935C
:10270000200120917A00246020937A0020917A00A1
:10271000226020937A0020917A00216020937A0031
:1027200020917A00206820937A001092C100E091F5
:102730006C04F0916D0442E04083E0916804F091F4
:1027400069041082E0916A04F0916B0420E1208317
:1027500010927404E0917004F091710436E03083BB
:10276000E0916E04F0916F04208120612083E0915C
:102770006E04F0916F04208128602083E0916E0444
:10278000F0916F04208120682083E0916E04F09125
:102790006F0420812F7D2083E091CF03F091D0033F
:1027A0004083E091CB03F091CC031082E091CD0304
:1027B000F091CE032FEC20831092D703E091D30346
:1027C000F091D4033083E091D103F091D2032081C2
:1027D00020612083E091D103F091D2032081286011
:1027E0002083E091D103F091D203208120682083DF
:1027F000E091D103F091D20320812F7D20831092AC
:10280000D2061092D10628E230E03093D40620930D
:10281000D306A4ECBFEFB093DD06A093DC06EDE297
:10282000F0E0F093DF06E093DE0660E67FEF709362
:10283000E8066093E7061092EA061092E906C12CBA
:10284000D12C44E6E42E42ECF42EC0921307D09231
:102850001407E0921507F092160728ED3FEF30932A
:10286000750620937406109277061092760643ED53
:102870005FEF5093800640937F062CE330E0309367
:1028800082062093810610928B0610928A069093FE
:102890008D0680938C06C092B606D092B706E09261
:1028A000B806F092B906109218061092170604E1C5
:1028B00010E010931A0600931906B0932306A09314
:1028C0002206F0932506E093240670932E0660936B
:1028D0002D061092300610922F0610925906109273
:1028E0005A0610925B0610925C060F2EFCEEEF2E3D
:1028F000FF24FA94F02DF092BB05E092BA051092F5
:10290000BD051092BC055093C6054093C505309394
:10291000C8052093C7051092D1051092D005909359
:10292000D3058093D2051092FC051092FD051092FC
:10293000FE051092FF050F2EF2EEEF2EFF24FA9403
:10294000F02DF0925E05E0925D050F2EFFE0EF2E78
:10295000F12CF02DF0926005E0925F05B0936905CF
:10296000A0936805F0936B05E0936A057093740576
:10297000609373051092760510927505C12CD12CC9
:1029800064E6E62E62E4F62EC0929F05D092A00582
:10299000E092A105F092A20561EF7FEF709301052F
:1029A000609300056EE170E070930305609302058B
:1029B00050930C0540930B0530930E0520930D05A5
:1029C000109217051092160590931905809318051B
:1029D000C0924205D0924305E0924405F09245052D
:1029E00086E696E6A2E8B1EC80934605909347050B
:1029F000A0934805B09349058093A3059093A4053F
:102A0000A093A505B093A6058093000690930106B8
:102A1000A0930206B093030680935D0690935E0632
:102A2000A0935F06B09360068093BA069093BB06AE
:102A3000A093BC06B093BD06809317079093180728
:102A4000A0931907B0931A0780E090E0ACEBB1ECCB
:102A500080939B0590939C05A0939D05B0939E0544
:102A60008093550690935606A0935706B093580648
:102A700080930F0790931007A0931107B09312074C
:102A800080E090E0ACEBB1E480933E0590933F058D
:102A9000A0934005B09341058093F8059093F90504
:102AA000A093FA05B093FB058093B2069093B3060A
:102AB000A093B406B093B50666E170E08AEC96E0A8
:102AC0000E94DD0568E170E085ED96E00E94DD057D
:102AD0006AE170E080EE96E00E94DD0567E170E05B
:102AE0008DE696E00E94DD0569E170E088E796E0FA
:102AF0000E94DD056BE170E083E896E00E94DD0551
:102B00006CE170E080E196E00E94DD056EE170E02E
:102B10008BE196E00E94DD0560E270E086E296E0DF
:102B20000E94DD056DE170E083EB95E00E94DD051C
:102B30006FE170E08EEB95E00E94DD0561E270E0F0
:102B400089EC95E00E94DD0562E270E086E595E0A3
:102B50000E94DD0564E270E081E695E00E94DD05FB
:102B600066E270E08CE695E00E94DD0563E270E0CD
:102B700089EF94E00E94DD0565E270E084E095E075
:102B80000E94DD0567E270E08FE095E00E94DD05C0
:102B900086E692E00E94E10783E090E09093BA031A
:102BA0008093B9031093B0030093AF038FEF9FEFAF
:102BB0009093A4038093A30380E090E0A0EFB2E49D
:102BC0008093B5039093B603A093B703B093B80373
:102BD00080E090E0A0EAB2E48093B1039093B20366
:102BE000A093B303B093B4036E012DE0C20ED11CC9
:102BF0008E010F5F1F4F8091A503811150C08CE2A1
:102C00000E947B04019709F04AC0C6010E94FD0999
:102C10008EE692E00E94E1076BE772E0C6010E9437
:102C20000A0A4091B5035091B6036091B7037091C1
:102C3000B803C6010E94AB0964E872E0C6010E94B5
:102C4000A1094091B1035091B2036091B303709117
:102C5000B403C6010E94AB096EE872E0C6010E948F
:102C6000A109809100024AE0B80190E00E94F119A8
:102C7000F80101900020E9F73197AF01401B510B9B
:102C8000B801C6010E94750966E972E0C6010E949A
:102C9000A10931E03093A503C6010E9445098CE2E9
:102CA0000E947B04892B11F41092A5038FEB93E013
:102CB0000E943803181619060CF041C1C6010E9483
:102CC000FD090E94EA0297FD09C089831A8241E04A
:102CD00050E0B801C6010E947509F3CF1A8219822B
:102CE0001C821B821E821D82B601C8010E945E0AE0
:102CF00080E290E00E94B1234C0125E030E04EE7F5
:102D0000B8010E94990AC8010E944509F12CE12CE2
:102D1000D4015E968D919C91E816F9060CF00CC1D9
:102D2000A701B401C8010E94750AAD80BE80C80128
:102D30000E944509AB2809F4FFC0A701B401C801EE
:102D40000E94750A80E290E00E94B1235C0123E0BA
:102D500030E046E2B8010E94990AC8010E94450984
:102D600088E992E00E94DF0750E040E0B501C80129
:102D70000E94750A4D815E8169817A818CE594E0BB
:102D80000E949A0285E292E00E948E07C8010E948A
:102D9000450950E040E0B501C8010E94750A62EAA9
:102DA00072E0C8010E94E508782EC8010E9445091A
:102DB000772031F01092AE03FFEFEF1AFF0AA8CF91
:102DC00050E040E0B501C8010E94750A60EB72E076
:102DD000C8010E94E508782EC8010E9445097720A5
:102DE00021F0B1E0B093AE03E7CF50E040E0B50191
:102DF000C8010E94750A6FEB72E0C8010E94E508E5
:102E0000782EC8010E944509772009F459C041E095
:102E100050E0B501C8010E94750AC8010E94DA0895
:102E20000E94CB08C8010E94450942E050E0B5016C
:102E3000C8010E94750AC8010E94DA080E94CB08E6
:102E4000C8010E94450941E050E0B501C8010E9457
:102E5000750AC8010E94DA086093AA037093AB0355
:102E60008093AC039093AD03C8010E94450942E0F2
:102E700050E0B501C8010E94750AC8010E94DA0835
:102E80006093A6037093A7038093A8039093A9036C
:102E9000C8010E9445096091AA037091AB0380911B
:102EA000AC039091AD030E94CB086091A603709192
:102EB000A7038091A8039091A9030E94CB087CCF1F
:102EC00050E040E0B501C8010E94750A67ED72E06C
:102ED000C8010E94E508782EC8010E9445097720A4
:102EE00009F46ACF41E050E0B501C8010E94750ABB
:102EF0006CED72E0C8010E94E508782EC8010E94BE
:102F00004509772019F01092000256CF41E050E0B9
:102F1000B501C8010E94750A61EE72E0C8010E9405
:102F2000E508B82EC8010E944509BB2009F444CF2A
:102F3000E1E0E093000240CFC6010E944509809184
:102F40000002811110C08091B9039091BA038130C1
:102F5000910509F4C2C154F48F3F980709F48BC05E
:102F6000892B09F4A0C00E94E70345CE8230910569
:102F7000D1F30397C1F720E030E040EA51E4209319
:102F8000CD063093CE064093CF065093D00680E016
:102F900090E0A0EAB1EC8093700690937106A09344
:102FA0007206B093730620E030E040E251E42093D3
:102FB000130630931406409315065093160680E0CE
:102FC00090E0A0E2B1EC8093B6059093B705A09392
:102FD000B805B093B90520E030E040E051EC209313
:102FE000590530935A0540935B0550935C0580E08A
:102FF00090E0A0EEB0E48093FC049093FD04A093D5
:10300000FE04B093FF048CE0E7E0F2E0D801019009
:103010000D928A95E1F75801D501ED90FD905D0183
:10302000C7010E9455074C018091B5039091B603EA
:10303000A091B703B091B803F40181A392A3A3A315
:10304000B4A38091B1039091B203A091B303B09166
:10305000B40381A792A7A3A7B4A7C7010E941E0E1D
:10306000B701C4010E94610DC7010E946D0CAC1430
:10307000BD0491F678CF87EE92E00E94DF078CEED8
:1030800092E00E94DF0781EF92E00E94DF0786EF67
:1030900092E00E94DF078BEF92E00E94DF0780E062
:1030A00093E00E94E10787EE92E00E94DF078CEE3A
:1030B00092E00E94DF0781EF92E00E94DF0786EF37
:1030C00092E00E94DF078BEF92E00E94DF0780E032
:1030D00093E00E94E10747CF4B895C89433051055B
:1030E0000CF041CF66246394712C8091AF039091D2
:1030F000B0038615970584F3AB89BC8913970CF050
:1031000032CF812CAA24A394B12C9301072C000C5C
:10311000440B550B2D8B3E8B4F8B588F9C01990F79
:10312000440B550B298F3A8F4B8F5C8FC5010E9442
:1031300055077C0131E0A316B10429F0C5010497BD
:10314000029708F0CFC08091B5039091B603A0918B
:10315000B703B091B803F70181A392A3A3A3B4A3CB
:103160008091B1039091B203A091B303B091B403E5
:1031700081A792A7A3A7B4A79090AE03C501039718
:1031800061E06925029708F0692DC5010E9457107A
:10319000C70103960E943B07C7010E960E943B079A
:1031A000C70149960E943B07D70113962D903D9089
:1031B0004D905C90169719966D917C91072E000C9E
:1031C000880B990B0E94FD1D9B01AC01C201B1014E
:1031D0000E948F2187FFE0C0F70167817085072E6D
:1031E000000C880B990B0E94FD1D9B01AC01C201D4
:1031F000B1010E94F61D18160CF0CEC02BED3FE079
:1032000049E450E4C201B1010E945C1E20E030E0BC
:1032100044E353E40E944D20D70113966D937D93B0
:103220008D939C9316972BED3FE049E450E41E9656
:103230006D917D918D919C9151970E945C1E20E033
:1032400030E044E353E40E944D20F701668777871E
:10325000808B918B2BED3FE049E450E4618D728DC2
:10326000838D948D0E945C1E20E030E044E353E4A3
:103270000E944D20D70159966D937D938D939C9319
:103280005C97BFEFAB1ABB0AE7E0AE16B10409F0DA
:103290004DCF882051F02B893C892F5F3F4F3C8BCD
:1032A0002B8B31E093269092AE03EE24E394F12C25
:1032B000C7010E945507B7010E94610D4FEFE41A44
:1032C000F40A57E0E516F10499F790E080E00E94D7
:1032D0006D0C8FEF681A780A08CF81E090E09C8B24
:1032E0008B8B00CFC5010297029728F0F6E0AF164E
:1032F000B10409F041CF6D897E898F89988D0E9434
:10330000FD1D1B012C01698D7A8D8B8D9C8D0E947A
:10331000FD1D9B01AC01C201B1010E944D202BEDAE
:103320003FE049E450E40E945C1E0E94EC211B0136
:103330002C0120E030E040E850E40E945C1E9B013C
:10334000AC016091B5037091B6038091B703909181
:10335000B8030E94921FD70191966D937D938D9330
:103360009C93949720E030E040E451E4C201B10125
:103370000E945C1E9B01AC016091B1037091B2038D
:103380008091B3039091B4030E94911FF70161A74C
:1033900072A783A794A7F0CE882483942FCFEF92AF
:1033A0000F931F93CF93DF93E80134E047FD34E19F
:1033B000042E000C550B57FF03C051954195510940
:1033C000E32E022F242FAE010E94161ACE01DF91A8
:1033D000CF911F910F91EF900895662777270C9456
:1033E0008F1BBB274A3031F4992322F4BDE290951C
:1033F00081959F4F0C94FD19BB27FB015527AA27E8
:10340000880F991FAA1FA41710F0A41B8395505171
:10341000B9F7A05DAA3308F0A95DA193009779F7E9
:10342000B111B1931192CB010C94E61D8F929F9232
:10343000AF92BF92CF92DF92EF92FF920F931F93C2
:10344000CF93DF9300D000D000D0CDB7DEB76A01B4
:10345000F22EB02E102FFBE3AF2EA01608F41BE3C4
:103460001F5F012F27E0AE014F5F5F4F0E94ED1CF1
:10347000BC018981982F9970913009F44EC09BE26C
:10348000E1FC04C09E2D9170E0FC49C05E2D50719E
:10349000E82FE87083FF55C084E0911101C083E0FC
:1034A000EF2DE81B8F1508F0E0E0D6018E2F20E20B
:1034B0005523C9F1992329F0D6019C93C6010196A1
:1034C0006C0196012D5F3F4FE2FE33C08EE4D601C2
:1034D0008C9391E411969C93119712968C93D90139
:1034E0008E2F90E281112AC0E20FF32FF11D10827E
:1034F0008EEF9FEF29960FB6F894DEBF0FBECDBFBB
:10350000DF91CF911F910F91FF90EF90DF90CF90BF
:10351000BF90AF909F908F9008959DE2B7CF90E2BB
:10352000B5CF2D9381508111FCCFCE0ED11CE0E0A0
:10353000C1CF8EE6D6018C9391E6CCCF9D9381507E
:10354000D1CF482F447082FF3DC084E0911101C06B
:1035500083E08F1510F4EF2DE81BD6018E2F20E2AB
:10356000552309F1992329F0D6019C93C6010196B0
:103570006C0196012D5F3F4FE2FE1BC089E4D6012E
:103580008C938EE411968C93119786E412968C930B
:10359000D9018E2F90E2882309F4A6CF9D93815004
:1035A000FACF2D9381508111FCCFCE0ED11CE0E0DB
:1035B000D9CF89E6D6018C938EE611968C9311971C
:1035C00086E6E4CF9B0177FF02C030E020E0A1E077
:1035D000B0E0911102C0B0E0A0E0F9013196AE0F69
:1035E000BF1F8B2C912CBB2009F461C05401EFEF5D
:1035F000AE1ABE0AAA0DBB1DFA161B0619F014F06E
:103600004F2D4A1B511188C0E3FC59C07601A42FED
:10361000B0E2A1114FC0C40ED11C992309F45BC0C4
:1036200040E0D6011196F60190836D01552309F40F
:1036300048C0012F060F9A81582F507184FF03C094
:10364000913309F4015010160CF047C0093008F00E
:1036500008E0EEE2FE2E5B01A01AB108850191940C
:10366000819491082F3F320729F4D601FC92F6018C
:1036700031966F016217730794F1021713077CF5F7
:10368000DB01A21BB30BAA24A394B12CAC0EBD1E6C
:10369000AA0DBB1D11968C9121503109D6011196AE
:1036A00028153905F4F0F60180836D01DBCFB12CCC
:1036B000A12CA0CFF701B1937F01A150AACF911106
:1036C000B0CFD601942F50E302C05D939150911179
:1036D000FCCFC40ED11C40E0ACCF01E0BACF80E3F8
:1036E000DBCF6217730731F4963388F4953311F406
:1036F000552369F0F6018083FD01842F90E281114A
:1037000008C0A40FB11D1C9290E080E0F3CE81E3CD
:10371000F1CF91938150F3CF911183CF8ACF8F92C4
:103720009F92AF92BF92CF92DF92EF92FF920F9350
:103730001F93CF93DF935C017B016115710519F035
:10374000DB018D939C9385010F5F1F4FF501D081A5
:103750008D2F90E00E94C51D6C01892BB9F5DD32DB
:10376000B9F50F5F1F4FD5011196DC91C1E05801EB
:10377000F1E0AF1AB10843E050E06CE772E0C50138
:103780000E94CE1D892B69F5680182E0C80ED11C0C
:1037900045E050E067E772E0C6010E94CE1D892B2C
:1037A00021F4680197E0C90ED11CE114F10419F06D
:1037B000D701CD92DC9260E070E080E89FEFC1110C
:1037C000FFC060E070E080E89FE7FAC05801BBCF1F
:1037D000DB3229F485010E5F1F4FF501D181C0E076
:1037E000C6CF43E050E064E772E0C5010E94CE1D01
:1037F000892BE9F0F80110E000E020E030E0A901B9
:103800005F01B0ED8B2E8D0E89E08815C8F19C2EDE
:10381000689491F88C2F8870C2FF16C0811102C085
:103820000F5F1F4F3196D501DC91C92DE9CFE1140F
:10383000F10429F00E5F1F4FF7011183008360E050
:1038400070E080EC9FE7BCC0882311F001501109A3
:10385000A5E0B0E00E943C1F9B01AC01220F331F8A
:10386000441F551F280D311D411D511D283999E94F
:103870003907490799E15907A8F2C6609C2ED2CFB3
:10388000AEEF8A1206C0C3FD3CC09C2E689493F82C
:10389000C9CFDF7DD534A9F580818D3239F4C0617F
:1038A000DF011296818162E070E006C0DF018B3299
:1038B000C1F3119661E070E080535D01A61AB70A6A
:1038C0008A30F8F4E0E8CE16ECE0DE065CF4B601EF
:1038D000660F771F660F771FC60ED71ECC0CDD1C38
:1038E000C80ED11C5D01FFEFAF1ABF0A8C91805347
:1038F0008A30A8F1C4FF03C0D194C194D1080C0D43
:103900001D1DC1FF09C0E114F10431F081E0A81AC6
:10391000B108D701AD92BC92CA01B9010E94FB1D4A
:10392000C370C33009F490584B015C0120E030E0D3
:10393000A9010E94F61D882309F440C0CBEAD2E019
:1039400017FF05C0119501951109C3E9D2E06E0179
:10395000B8E1CB1AD10880E2E82EF12C0FC0D501D6
:10396000B1CFFE0125913591459154910E191F0952
:10397000C501B4010E945C1E4B015C01D501C4016C
:103980000E151F0574F72497F594E794CC16DD0601
:10399000A9F78A2F880F8B2F881F8F3F49F020E0CF
:1039A00030E0A901C501B4010E94F61D811106C0D5
:1039B00082E290E09093280780932707C501B40125
:1039C000DF91CF911F910F91FF90EF90DF90CF90FB
:1039D000BF90AF909F908F900895283008F027E017
:1039E0003327DA01990F311D87FD9160009661053B
:1039F000710539F432602E5F3D9330E32A95E1F78B
:103A000008959F3F30F080387105610509F03C5FF3
:103A10003C5F3D93913008F08068911DDF93CF9318
:103A20001F930F93FF92EF92192F987F9695E92F8E
:103A300096959695E90FFF27E75FFC4F9927332767
:103A4000EE24FF24A701E70105900894079428F4C9
:103A5000360FE71EF81E491F511D660F771F881F7E
:103A6000991F0694A1F70590079428F4E70EF81E15
:103A7000491F561FC11D770F881F991F661F069487
:103A8000A1F70590079428F4F80E491F561FC71F89
:103A9000D11D880F991F661F771F0694A1F7059007
:103AA000079420F4490F561FC71FD81F990F661F90
:103AB000771F881F0694A9F784911095177041F01D
:103AC000D695C79557954795F794E7941A95C1F7FA
:103AD000EFEAF2E068941590159135916591959112
:103AE00005907FE27395E118F10A430B560BC90B61
:103AF000D009C0F7E10CF11E431F561FC91FD01D8E
:103B00007EF4703311F48A95E6CFE894015030F0DA
:103B1000080F0AF40027021708F4202F2395022F1C
:103B20007A3328F079E37D932A95E9F710C07D93E5
:103B30002A9589F606949795679537951795179462
:103B4000E118F10A430B560BC90BD00998F02395E5
:103B50007E9173957A3308F070E37C932013B8F765
:103B60007E9170617D9330F0839571E37D9370E376
:103B70002A95E1F71124EF90FF900F911F91CF91BB
:103B8000DF91992787FD9095089591110C94C91E96
:103B9000803219F089508550C8F70895FB01DC0187
:103BA0004150504088F08D9181341CF08B350CF4DD
:103BB000805E659161341CF06B350CF4605E861B91
:103BC000611171F3990B0895881BFCCFDC01FC0196
:103BD000672F71917723E1F7329704C07C916D9341
:103BE00070836291AE17BF07C8F308950E94381E14
:103BF00008F481E00895E89409C097FB3EF490959D
:103C00008095709561957F4F8F4F9F4F9923A9F0B5
:103C1000F92F96E9BB279395F69587957795679544
:103C2000B795F111F8CFFAF4BB0F11F460FF1BC088
:103C30006F5F7F4F8F4F9F4F16C0882311F096E91B
:103C400011C0772321F09EE8872F762F05C06623C9
:103C500071F096E8862F70E060E02AF09A95660F82
:103C6000771F881FDAF7880F9695879597F908953B
:103C7000990F0008550FAA0BE0E8FEEF161617067D
:103C8000E807F907C0F012161306E407F50798F0E5
:103C9000621B730B840B950B39F40A2661F0232BFE
:103CA000242B252B21F408950A2609F4A140A6957A
:103CB0008FEF811D811D08950E946F1E0C94E31EDD
:103CC0000E94D51E38F00E94DC1E20F0952311F0D2
:103CD0000C94CC1E0C94D21E11240C94171F0E941D
:103CE000F41E70F3959FC1F3950F50E0551F629F2E
:103CF000F001729FBB27F00DB11D639FAA27F00D45
:103D0000B11DAA1F649F6627B00DA11D661F829F6B
:103D10002227B00DA11D621F739FB00DA11D621F50
:103D2000839FA00D611D221F749F3327A00D611D6D
:103D3000231F849F600D211D822F762F6A2F11244F
:103D40009F5750409AF0F1F088234AF0EE0FFF1F82
:103D5000BB1F661F771F881F91505040A9F79E3FD9
:103D6000510580F00C94CC1E0C94171F5F3FE4F3B8
:103D7000983ED4F3869577956795B795F795E7952F
:103D80009F5FC1F7FE2B880F911D9695879597F938
:103D9000089599278827089597F99F6780E870E02C
:103DA00060E008959FEF80EC089500240A941616B1
:103DB000170618060906089500240A941216130619
:103DC000140605060895092E0394000C11F48823A7
:103DD00052F0BB0F40F4BF2B11F460FF04C06F5FC3
:103DE0007F4F8F4F9F4F089557FD9058440F551F99
:103DF00059F05F3F71F04795880F97FB991F61F06D
:103E00009F3F79F087950895121613061406551FE3
:103E1000F2CF4695F1DF08C0161617061806991F4F
:103E2000F1CF86957105610508940895E894BB2744
:103E300066277727CB0197F90895052E97FB1EF487
:103E400000940E94341F57FD07D00E944F1F07FCAB
:103E500003D04EF40C94341F509540953095219525
:103E60003F4F4F4F5F4F08959095809570956195A6
:103E70007F4F8F4F9F4F08950E94711FA59F900DF8
:103E8000B49F900DA49F800D911D11240895B7FF3C
:103E90000C943C1F0E943C1F821B930B0895A1E2CF
:103EA0001A2EAA1BBB1BFD010DC0AA1FBB1FEE1FB4
:103EB000FF1FA217B307E407F50720F0A21BB30BFF
:103EC000E40BF50B661F771F881F991F1A9469F77B
:103ED00060957095809590959B01AC01BD01CF01D7
:103EE0000895A29FB001B39FC001A39F700D811DD3
:103EF0001124911DB29F700D811D1124911D0895F3
:103F00009F939F770E94F5200F90002042F49058D5
:103F1000A2EA2AED3FE049E450E40E94A91F0C9474
:103F2000E31E5058BB27AA270E94A91F0C94E31E2A
:103F30000E94D51E38F00E94DC1E20F039F49F3F0D
:103F400019F426F40C94D21E0EF4E095E7FB0C94C1
:103F5000CC1EE92F0E94F41E58F3BA1762077307AC
:103F60008407950720F079F4A6F50C94161F0EF43B
:103F7000E0950B2EBA2FA02D0B01B90190010C0179
:103F8000CA01A0011124FF27591B99F0593F50F491
:103F9000503E68F11A16F040A22F232F342F4427E9
:103FA000585FF3CF469537952795A795F0405395E1
:103FB000C9F77EF41F16BA0B620B730B840BBAF0B1
:103FC0009150A1F0FF0FBB1F661F771F881FC2F71C
:103FD0000EC0BA0F621F731F841F48F48795779530
:103FE0006795B795F7959E3F08F0B0CF9395880FEA
:103FF00008F09927EE0F9795879508959F939F77DF
:10400000EEE389379E0728F4E4EEF0E00E943C21BD
:104010000CC00E94F5209058A2EA2AED3FE049EC3E
:104020005FE30E94A91F0E94E31E0F9007FC9058B7
:104030000895DF93DD27B92FBF7740E85FE31616B9
:10404000170648075B0718F4D92F0E9494219F9305
:104050008F937F936F930E943A22E8EFF0E00E94E3
:1040600015210E94E31E2F913F914F915F910E9475
:104070006F1EDD2351F09058A2EA2AED3FE049EC93
:104080005FE3D0785D270E94A91FDF910C94E31EA7
:104090000E945221E3950C947B210E9461200C9494
:1040A000E31E0E94DC1E58F00E94D51E40F029F449
:1040B0005F3F29F00C94CC1E51110C94171F0C94E7
:1040C000D21E0E94F41E68F39923B1F3552391F395
:1040D000951B550BBB27AA2762177307840738F077
:1040E0009F5F5F4F220F331F441FAA1FA9F335D0D4
:1040F0000E2E3AF0E0E832D091505040E695001C88
:10410000CAF72BD0FE2F29D0660F771F881FBB1F41
:10411000261737074807AB07B0E809F0BB0B802D1F
:10412000BF01FF2793585F4F3AF09E3F510578F04B
:104130000C94CC1E0C94171F5F3FE4F3983ED4F30D
:10414000869577956795B795F7959F5FC9F7880F1F
:10415000911D9695879597F90895E1E0660F771F71
:10416000881FBB1F621773078407BA0720F0621B02
:10417000730B840BBA0BEE1F88F7E09508950E942D
:10418000C6206894B1110C94171F08950E94FC1E5C
:1041900088F09F5798F0B92F9927B751B0F0E1F008
:1041A000660F771F881F991F1AF0BA95C9F714C0B8
:1041B000B13091F00E94161FB1E008950C94161FC3
:1041C000672F782F8827B85F39F0B93FCCF38695F1
:1041D00077956795B395D9F73EF49095809570954E
:1041E00061957F4F8F4F9F4F0895DF93CF931F931C
:1041F0000F938B01EC01E5E2F1E00E9415210E9492
:10420000E31E9801AE018B01EC0160E070E080E8F4
:104210009FE30E94911F0E94FA219801AE010F9125
:104220001F91CF91DF910C946F1EDF93CF931F935B
:104230000F93FF92EF92DF927B018C01689406C08E
:10424000DA2EEF010E946F1EFE01E894A5912591E0
:10425000359145915591A6F3EF010E94A91FFE01EA
:104260009701A801DA9469F7DF90EF90FF900F9122
:104270001F91CF91DF9108959F938F937F936F93B9
:10428000FF93EF939B01AC010E945C1EEF91FF91A5
:104290000E9415212F913F914F915F910C945C1ECC
:1042A0000C94D21E0E94FC1ED8F3E894E0E0BB27D9
:1042B0009F57F0F02AED3FE049EC06C0EE0FBB0F30
:1042C000661F771F881F28F0B23A620773078407BA
:1042D00028F0B25A620B730B840BE3959A9572F730
:1042E000803830F49A95BB0F661F771F881FD2F76E
:1042F00090480C94A422EF93E0FF07C0A2EA2AEDB5
:104300003FE049EC5FEB0E94A91F0E94E31E0F9063
:10431000039401FC9058EDE4F1E00C943C210E94E0
:10432000381E08F48FEF08959B01AC0160E070E047
:1043300080E89FE30C944D20FA01EE0FFF1F3096AA
:1043400021053105A1F16115710561F48038BFE3E4
:104350009B0749F168949038810561F08038BFEF80
:104360009B0741F099234AF5FF3FE10531052105FF
:1043700019F1E8940894E795D901AA2329F4AB2F01
:10438000BE2FF85FD0F310C0FF5F70F4A695E0F782
:10439000F73950F019F0FF3A38F49F779F930DD01A
:1043A0000F9007FC9058089546F00C94D21E60E0E0
:1043B00070E080E89FE308954FE79F775F934F9306
:1043C0003F932F930E94F9222F913F914F915F913C
:1043D0000E945C1E0C9470229F930E9452210F90A9
:1043E00007FCEE5F0C947B2119F416F40C94D21E9A
:1043F0000C94A2220E94FC1EB8F39923C9F3B6F3D1
:104400009F57550B87FF0E94B0220024A0E640EA88
:10441000900180585695979528F4805C660F771F19
:10442000881F20F026173707480730F4621B730BEC
:10443000840B202931294A2BA6951794079420250F
:1044400031254A2758F7660F771F881F20F0261757
:104450003707480730F4620B730B840B200D311DB6
:10446000411DA09581F7B901842F9158880F969529
:10447000879508959B01AC010C945C1EDF93D92FA6
:104480000E945221E695D7952AED3FE049E45FE38B
:10449000B33A6207730784079507D7953AF0A2EA03
:1044A00049EC90680E94A91F0E94E31EEBE6F1E030
:1044B0000E943C21DD0F13F00E949421DD0F0BF4CC
:1044C0009058DF9108950E94381E880B990B08952B
:1044D00029F416F00C94CC1E0C94161F0C94D21ECA
:1044E0000E94FC1EA8F39638A0F707F80F92E894F4
:1044F0002BE33AEA48EB5FE70E94721E0F920F929D
:104500000F924DB75EB70F920E944123EEE8F1E0A3
:104510000E9415214F915F91EF91FF91E595EE1F5C
:10452000FF1F49F0FE57E0684427EE0F441FFA953D
:10453000E1F74195550B0E94BB220F9007FE0C94AA
:10454000942108959F3F31F0915020F487957795FD
:104550006795B795880F911D9695879597F908955A
:1045600091505040660F771F881FD2F708950C9422
:10457000CC1E0C94A2220E94FC1ED8F39923C9F3EE
:10458000940F511DA3F39150504094F059F088239B
:1045900032F0660F771F881F91505040C1F79E3F41
:1045A00051052CF7880F911D9695879597F90895D9
:1045B0005F3FACF0983E9CF0BB278695779567955A
:1045C000B79508F4B1609395C1F7BB0F58F711F494
:1045D00060FFE8CF6F5F7F4F8F4F9F4FE3CF0C940B
:1045E000171F16F00C94A2220C94D21E68940C94FF
:1045F000CC1E0E94FC1EA8F39923C1F3AEF3DF93F7
:10460000CF931F930F93FF92C92FDD2788232AF0A2
:104610002197660F771F881FDAF720E030E040E827
:104620005FEB9FE3883920F0803E38F021968F774A
:104630000E94921FE6EBF1E004C00E94921FE3EE9D
:10464000F1E00E9415218B01BE01EC01FB2E6F579A
:1046500071097595771F880B990B0E94FD1D28E144
:1046600032E741E35FE30E946F1EAF2D9801AE0178
:10467000FF900F911F91CF91DF910E94A91F0C9481
:10468000E31EFA01DC01AA0FBB1F9B01AC01BF575F
:1046900028F4222733274427507820C0B75190F4BC
:1046A000AB2F0024469537952795011CA395D2F38F
:1046B000002071F0220F331F441FB395DAF30ED0A0
:1046C0000C94911F61307105A0E88A07B94630F457
:1046D0009B01AC016627772788279078309621F0D8
:1046E00020833183428353830895991B79E004C06A
:1046F000991F961708F0961B881F7A95C9F7809521
:10470000089597FB072E16F4009407D077FD09D083
:104710000E949D2307FC05D03EF4909581959F4F04
:104720000895709561957F4F0895EE0FFF1F881FC4
:104730008BBF0790F691E02D1994AA1BBB1B51E18A
:1047400007C0AA1FBB1FA617B70710F0A61BB70B01
:10475000881F991F5A95A9F780959095BC01CD01A6
:1047600008950F931F93CF93DF938230910510F438
:1047700082E090E0E0912B07F0912C0730E020E000
:10478000B0E0A0E0309799F42115310509F44AC052
:10479000281B390B24303105D8F58A819B8161159E
:1047A000710589F1FB0193838283FE0111C0408171
:1047B00051810281138148175907E0F048175907C2
:1047C00099F4109761F012960C93129713961C931C
:1047D0003296CF01DF91CF911F910F9108950093F1
:1047E0002B0710932C07F4CF2115310551F04217F8
:1047F000530738F0A901DB019A01BD01DF01F8017F
:10480000C1CFEF01F9CF90932C0780932B07CDCF29
:10481000FE01E20FF31F81939193225031093983F6
:104820002883D7CF2091290730912A07232B41F4E1
:10483000209103023091040230932A072093290724
:1048400020910102309102022115310541F42DB76A
:104850003EB74091050250910602241B350BE091B2
:104860002907F0912A07E217F307A0F42E1B3F0B4C
:104870002817390778F0AC014E5F5F4F24173507D2
:1048800048F04E0F5F1F50932A07409329078193EA
:1048900091939FCFF0E0E0E09CCFCF93DF93009720
:1048A000E9F0FC01329713821282A0912B07B0919C
:1048B0002C07ED0130E020E01097A1F42081318138
:1048C000820F931F2091290730912A072817390753
:1048D00009F061C0F0932A07E0932907DF91CF9197
:1048E0000895EA01CE17DF07E8F54A815B819E0152
:1048F00041155105B1F7E901FB83EA8349915991CB
:10490000C40FD51FEC17FD0761F4808191810296D9
:10491000840F951FE90199838883828193819B830A
:104920008A83F0E0E0E012968D919C9113970097B6
:10493000B9F52D913C911197CD010296820F931FED
:104940002091290730912A072817390739F630971F
:1049500051F510922C0710922B07B0932A07A093C1
:104960002907BCCFD383C28340815181840F951F17
:10497000C817D90761F44E5F5F4F88819981480F4E
:10498000591F518340838A819B81938382832115A0
:10499000310509F0B0CFF0932C07E0932B079ECFA1
:1049A000FD01DC01C0CF13821282D7CF4F925F92FC
:1049B0006F927F928F929F92AF92BF92CF92DF922F
:1049C000EF92FF920F931F93CF93DF938C01009789
:1049D00099F4CB01DF91CF911F910F91FF90EF9050
:1049E000DF90CF90BF90AF909F908F907F906F900F
:1049F0005F904F900C94B123FC01E60FF71F9C01D0
:104A000022503109E217F30708F4AEC0D901CD9165
:104A1000DC911197C617D70720F1C530D10578F082
:104A2000CE0104978617970750F0C61BD70B229725
:104A3000C193D1936D937C93CF010E944D24C80103
:104A4000DF91CF911F910F91FF90EF90DF90CF906A
:104A5000BF90AF909F908F907F906F905F904F909E
:104A600008955B01AC1ABD0A4C018C0E9D1EA091ED
:104A70002B07B0912C07512C412CF12CE12C1097D5
:104A800031F58091290790912A078815990509F039
:104A90005CC04616570608F058C0809101029091FC
:104AA0000202009741F48DB79EB7409105025091E4
:104AB0000602841B950BE817F90708F055C0F09320
:104AC0002A07E0932907F90171836083B8CF8D919C
:104AD0009C91119712966C90129713967C90139755
:104AE000A815B90559F56C0142E0C40ED11CCA14D1
:104AF000DB0420F1AC014A195B09DA011296159723
:104B000080F06282738251834083D9016D937C93DC
:104B1000E114F10471F0D7011396FC93EE93129710
:104B20008ECF22968C0F9D1FF90191838083F30114
:104B3000EFCFF0932C07E0932B0781CF481659064F
:104B400008F42C017D01D3019ACFCB010E94B1233F
:104B50007C01009749F0AE01B8010E94B725C80159
:104B60000E944D2487016BCF10E000E068CFFB016D
:104B7000DC0102C001900D9241505040D8F70895D9
:104B8000FB01DC018D91019080190110D9F3990B83
:104B90000895FB01DC0101900D920020E1F70895DA
:104BA000FB0151915523A9F0BF01DC014D9145173F
:104BB0004111E1F759F4CD010190002049F04D91E8
:104BC00040154111C9F3FB014111EFCF81E090E0A5
:084BD00001970895F894FFCF4E
:104BD8000100002D07800005000400030002000109
:104BE800000600000000007A039A02C702C70338D3
:104BF80003D6022A030D0A006E616E00696E660014
:104C08006F766600536572766F20576169742E2E31
:104C18002E004C65673A2000206D6F746F72313A30
:104C28002000206D6F746F72323A2000206D6F740F
:104C38006F72333A20005374617274757000536553
:104C48006E64696E67206461746100232377696408
:104C580074683A0023236865696768743A002323F7
:104C680073746F703A007E0052656164696E673ACA
:104C780020004D6F766520666F72776172647300ED
:104C88004D6F7665206261636B776172647300555E
:104C980070646174652068656967687420616E6412
:104CA8002077696474680053746F70007472756556
:104CB8000066616C7365006C656731006C6567320E
:104CC800006C656733006C656734006C6567350098
:064CD8006C656736000068
:00000001FF
